S01700004D6963726F4D6F7573652B5F365F322E73726563B9
S11300000C9434000C9446000C9446000C94460066
S11300100C9446000C9446000C9446000C94460044
S11300200C9446000C9446000C9446000C94460034
S11300300C9446000C9446000C9446000C94460024
S11300400C9446000C9446000C9446000C94460014
S11300500C9446000C9446000C9446000C94460004
S11300600C9433050C94460011241FBECFEFD8E046
S1130070DEBFCDBF21E0A0E0B1E001C01D92A03001
S1130080B207E1F70E943D050C94AB070C94000005
S1130090ECEBF0E0108294EA908390819923ECF7E2
S11300A08093BB0084E88093BC00ECEBF0E080819B
S11300B08823ECF78091B90008958093BB0084E80D
S11300C08093BC00ECEBF0E080818823ECF7809116
S11300D0B9000895882331F084EC8093BC00ECEBE4
S11300E0F0E004C084E88093BC00F9CF80818823C9
S11300F0ECF78091BB000895ECEBF0E084E9808399
S11301008AE08A95F1F700C0108284E48083089520
S113011098E29A95F1F71092BC003D9A90E0AC01F8
S1130120440F551F440F551F440F551F480F591FA7
S1130130141615069CF520E030E0E8EBF0E0459A53
S11301409081903229F48AE48A95F1F700C00CC0BA
S11301509081923029F492E19A95F1F700C004C09D
S11301608AE48A95F1F700C045989081903229F489
S11301709AE49A95F1F700C00CC09081923029F46A
S113018082E18A95F1F700C004C09AE49A95F1F7E8
S113019000C02F5F3F4F2417350789F680E388B9E5
S11301A08AE68A95F1F700C008958FE19EE40197ED
S11301B0F1F700C0000082E08093B80087B1807F2F
S11301C087B918B888B18F6088B98AE28093BA0079
S11301D00895E4E6F0E080818E7F808386E6809354
S11301E07C0086E880937A00089581E00E9488006C
S11301F086ED0E94480080E10E945D0083E90E9430
S11302005D000E947C008CE30E94480080E20E9412
S11302105D008CE70E945D000E947C008CE30E94DC
S1130220480082E20E945D0080E00E945D000E941E
S11302307C000895CF93C82F8EEE0E944800C430EE
S113024091F028F4C130B9F0C23089F017C0C83039
S113025031F0C03199F480E10E945D000FC088E064
S11302600E945D000BC084E00E945D0007C082E034
S11302700E945D0003C081E00E945D000E947C003A
S1130280CF910895CF93DF9381E00E948800C0E06E
S1130290D0E0C130D10549F0C230D10551F02097EA
S11302A059F481E00E941A0107C084E00E941A01F7
S11302B003C080E10E941A0182E00E94880086E265
S11302C00E94480082E80E945D0087E00E945D0071
S11302D00E947C008AE18A95F1F700C086E20E94C0
S11302E0480083E80E945D0084E10E945D000E9452
S11302F07C008AE18A95F1F700C086E20E944800FA
S113030080E80E945D0083E00E945D000E947C0002
S11303108AE18A95F1F700C02196C330D10509F02E
S1130320B8CFDF91CF910895CF93DF930E941A0144
S113033086E20E94480087E80E945D000E947C00DB
S11303408AE18A95F1F700C087E20E94480081E0C3
S11303500E946A00C82F80E00E946A00D82F0E9481
S11303607C008AE18A95F1F700C08C2F90E0982FE9
S113037088278D0F911DDF91CF910895CF93DF933F
S113038086ED0E9448008CE10E945D0087ED0E948A
S1130390480081E00E946A00D82F80E00E946A0031
S11303A0C82F0E947C008C2F90E0982F88278D0FF7
S11303B0911DDF91CF910895549A5C9A2FEF80E7B5
S11303C092E0215080409040E1F700C000005C982A
S11303D00895EAE7F0E08081806480832FEF80E76E
S11303E092E0215080409040E1F700C000008091ED
S11303F07900893B60F40E94DC012FEF84E39CE0E8
S1130400215080409040E1F700C00000F4CF0895EF
S11304108F929F92AF92BF92CF92DF92EF92FF9210
S1130420CF93DF93EA01861B970B4C01990FAA081F
S1130430BB08C501B4010E94B206288139814A81F2
S11304405B810E943E070E947A066B017C018885CD
S11304509985AA85BB85BC01CD01680D791D8A1DCE
S11304609B1D688779878A879B870E94B2062C81A7
S11304703D814E815F810E943E070E947A0661158C
S113048020E872078105910564F4613020E8720761
S11304902FEF820792074CF462E070E88FEF9FEF32
S11304A004C06EEF7FE780E090E00D2C000CEE08B6
S11304B0FF08DC01CB018C0D9D1DAE1DBF1D8138D5
S11304C02FEF9207A207B20724F481E89FEFAFEF62
S11304D0BFEF80389105A105B10524F08FE790E0C6
S11304E0A0E0B0E0DF91CF91FF90EF90DF90CF904C
S11304F0BF90AF909F908F900895682F84B18660CD
S113050084B983E0809381006623C4F4619581E813
S113051080938000062E000C770B880B990B0E94A9
S1130520B20623E333E343E250E40E943E070E9411
S1130530810670938900609388000895611104C056
S113054081E080938000089581E280938000062EEC
S1130550000C770B880B990B0E94B20623E333E35C
S113056043E250E40E943E070E94810670938B0090
S113057060938A000895682F8AB180668AB983E0FF
S113058085BD6623A4F4619581E284BD062E000C2A
S1130590770B880B990B0E94B20623E333E343E203
S11305A050E40E943E070E94810668BD08956111CF
S11305B003C081E084BD089581E884BD062E000C4B
S11305C0770B880B990B0E94B20623E333E343E2D3
S11305D050E40E943E070E94810667BD0895CF93B0
S11305E0C62F0E947D028C2F0E94BB02CF910895DA
S11305F094B1966094B993E090938100662349F096
S113060091E89093800090E0909389008093880013
S11306100895811104C081E080938000089591E2DF
S11306209093800090E090938B0080938A000895CB
S11306309AB190669AB993E095BD662321F091E250
S113064094BD88BD0895811103C081E084BD0895DF
S113065091E894BD87BD08952F923F924F925F9287
S11306606F927F928F929F92AF92BF92CF92DF92BE
S1130670EF92FF920F931F93CF93DF93CDB7DEB723
S113068064970FB6F894DEBF0FBECDBF2C010E9455
S1130690BE014C0186B181708B8B86B182708C8BCC
S11306A08FE892ECA5EFBBE389839A83AB83BC8389
S11306B08FE692E1A3E8BAE38D839E83AF83B88784
S11306C019861A861B861C868EE790E09E878D8786
S11306D080EC91EAAFEEBFE38F87988BA98BBA8B3E
S11306E0E12CF12C312C0F2EF1E42F2EF02D81E092
S11306F00E9494016C0180E10E9494015C010E94BB
S1130700BE01BC0168197909AE014F5F5F4F80E0FB
S113071090E00E9408028C0121E8C2162CE0D20667
S1130720E0F041E8A4164CE0B40698F569857A85B2
S11307308B859C850E94B20623E333E343E35FE3A6
S11307400E943E070E947A0669877A878B879C8776
S11307500F2EF6E0DF2EF02D1FC081E8A8168CE0E6
S1130760B806C8F069857A858B859C850E94B20697
S113077023E333E343E35FE30E943E070E947A06E8
S113078069877A878B879C870F2EFAEFDF2EF02DEF
S113079003C0D32C01C0D32CC8018F5B9F4F833877
S11307A0910524F4992324F40FEB02C001E410E032
S11307B0822D8D19632D801B0E94F80281E48D0D1A
S11307C0632D800F0E94180386B180FB662460F8B5
S11307D0712C2B89822F220F990B6816790631F020
S11307E086B181708B8B4FEFE41AF40A86B1827064
S11307F090E04C89242F440F330B8217930731F078
S113080086B182708C8B8FEFE81AF80AE414F50431
S1130810A0F084E00E949401813F2AE0920744F012
S11308208133914154F060E080E00E94EF020CC0FB
S113083060E080E00E94EF0207C08FE19EE4019730
S1130840F1F700C0000053CF64960FB6F894DEBFF2
S11308500FBECDBFDF91CF911F910F91FF90EF900D
S1130860DF90CF90BF90AF909F908F907F906F90CC
S11308705F904F903F902F9008959F92AF92BF92B8
S1130880CF92DF92EF92FF920F931F93CF93DF9358
S1130890CDB7DEB762970FB6F894DEBF0FBECDBFFB
S11308A00E94BE015C0182E490E6A5EEBBE389836D
S11308B09A83AB83BC8382E898EAABEFB7E38D837A
S11308C09E83AF83B88719861A861B861C868EE79B
S11308D090E09E878D8780E092E8AFEFBFE38F873B
S11308E0988BA98BBA8B00E010E00F2EF4E6CF2E84
S11308F0D12CF02D0F2EFDEF9F2EF02D0E94BE0166
S11309009C012A193B09C901B6010E945206060F2F
S1130910171F0D3F88E01807C4F4AE014F5F5F4F07
S1130920B90188EB9BE00E94080244967C01892D62
S11309308E190E947D028E2D0E94BB028FE19EE4DF
S11309400197F1F700C00000D9CF60E080E00E9479
S1130950EF0262960FB6F894DEBF0FBECDBFDF91F3
S1130960CF911F910F91FF90EF90DF90CF90BF90A8
S1130970AF909F900895AF92BF92CF92DF92EF9283
S1130980FF920F931F93CF93DF93CDB7DEB7629798
S11309900FB6F894DEBF0FBECDBF0E94BE015C014E
S11309A086EA9BE9A4ECBBE389839A83AB83BC838B
S11309B08CEA95ECA7EAB7E38D839E83AF83B8876F
S11309C019861A861B861C868EE790E09E878D8783
S11309D080E09CEAAFEFBFE38F87988BA98BBA8B3B
S11309E000E010E00F2EF4E6CF2ED12CF02D0E9463
S11309F0BE019C012A193B09C901B6010E94520695
S1130A00060F171F043087EF1807C4F0AE014F5FBD
S1130A105F4FB90188E494EF0E94080244977C0177
S1130A2081950E947D028DEF8E0D0E94BB028FE1A5
S1130A309EE40197F1F700C00000D9CF60E080E0A8
S1130A400E94EF0262960FB6F894DEBF0FBECDBFD0
S1130A50DF91CF911F910F91FF90EF90DF90CF9096
S1130A60BF90AF9008951F920F920FB60F9211246A
S1130A700F900FBE0F901F9018950E94D5000E94F2
S1130A80E9000E94F5000E94420182E08093B800D0
S1130A90789480E090E005C0329910C01AC080E0DC
S1130AA090E0EFE1FEE43197F1F700C00000329BE3
S1130AB0F6CF019684309105A4F3EECFFFE728E347
S1130AC081E0F15020408040E1F700C000003299FD
S1130AD0F5CF0E94DC010E94E9019FEFE3EDF0E312
S1130AE09150E040F040E1F700C000002FEF83EDAB
S1130AF090E3215080409040E1F700C0000061E0A5
S1130B008EE090E00E942C03EFEFF4E32CE0E15040
S1130B10F0402040E1F700C0000061E08EE090E08A
S1130B200E942C038FEF94E3ECE081509040E0406E
S1130B30E1F700C0000061E08EE090E00E942C0329
S1130B40FFEF24E38CE0F15020408040E1F700C047
S1130B50000061E08EE090E00E942C039FEFE4E34C
S1130B60FCE09150E040F040E1F700C000000E943A
S1130B70BB042FEF84E39CE0215080409040E1F7D8
S1130B8000C0000061E08DE090E00E942C03EFEFD4
S1130B90F4E32CE0E150F0402040E1F700C0000015
S1130BA061E08EE090E00E942C038FEF94E3ECE090
S1130BB081509040E040E1F700C000000E94BB0477
S1130BC0FFEF24E38CE0F15020408040E1F700C0C7
S1130BD0000061E08DE090E00E942C039FEFE4E3CD
S1130BE0FCE09150E040F040E1F700C0000061E01B
S1130BF08EE090E00E942C030E943D042FEF84E3DA
S1130C009CE0215080409040E1F700C00000EFEFED
S1130C10F4E32CE0E150F0402040E1F700C0000094
S1130C2061E08EE090E00E942C038FEF94E3ECE00F
S1130C3081509040E040E1F700C0000061E08EE0A8
S1130C4090E00E942C03FFEF24E38CE0F15020405D
S1130C508040E1F700C000000E94BB049FEFE4E382
S1130C60FCE09150E040F040E1F700C0000061E09A
S1130C708EE090E00E942C0360E080E00E94EF028E
S1130C8081E00E949401853E9C4010F00E94DC01AA
S1130C908FE798E3E1E081509040E040E1F700C045
S1130CA00000EECF97FB072E16F4009407D077FDD3
S1130CB009D00E94660607FC05D03EF49095819504
S1130CC09F4F0895709561957F4F0895AA1BBB1B94
S1130CD051E107C0AA1FBB1FA617B70710F0A61B38
S1130CE0B70B881F991F5A95A9F780959095BC0159
S1130CF0CD0108950E9481066894B1110C943807BF
S1130D0008950E941D0788F09F5798F0B92F9927DE
S1130D10B751B0F0E1F0660F771F881F991F1AF0E2
S1130D20BA95C9F714C0B13091F00E943707B1E009
S1130D3008950C943707672F782F8827B85F39F008
S1130D40B93FCCF3869577956795B395D9F73EF47B
S1130D5090958095709561957F4F8F4F9F4F089523
S1130D60E89409C097FB3EF4909580957095619541
S1130D707F4F8F4F9F4F9923A9F0F92F96E9BB27F7
S1130D809395F695879577956795B795F111F8CF73
S1130D90FAF4BB0F11F460FF1BC06F5F7F4F8F4FDE
S1130DA09F4F16C0882311F096E911C0772321F0D4
S1130DB09EE8872F762F05C0662371F096E8862F6C
S1130DC070E060E02AF09A95660F771F881FDAF7C3
S1130DD0880F9695879597F9089597F99F6780E806
S1130DE070E060E008959FEF80EC089500240A9479
S1130DF01616170618060906089500240A941216F2
S1130E001306140605060895092E0394000C11F424
S1130E10882352F0BB0F40F4BF2B11F460FF04C0D1
S1130E206F5F7F4F8F4F9F4F089557FD9058440F2A
S1130E30551F59F05F3F71F04795880F97FB991F35
S1130E4061F09F3F79F087950895121613061406F2
S1130E50551FF2CF4695F1DF08C01616170618067F
S1130E60991FF1CF86957105610508940895E8945A
S1130E70BB2766277727CB0197F908950E9451076E
S1130E800C9404070E94F60638F00E94FD0620F038
S1130E90952311F00C94ED060C94F30611240C9494
S1130EA038070E94150770F3959FC1F3950F50E022
S1130EB0551F629FF001729FBB27F00DB11D639F08
S1130EC0AA27F00DB11DAA1F649F6627B00DA11DAE
S1130ED0661F829F2227B00DA11D621F739FB00D54
S1130EE0A11D621F839FA00D611D221F749F3327C4
S1130EF0A00D611D231F849F600D211D822F762F5D
S1130F006A2F11249F5750409AF0F1F088234AF039
S1130F10EE0FFF1FBB1F661F771F881F91505040A5
S1130F20A9F79E3F510580F00C94ED060C94380708
S1130F305F3FE4F3983ED4F3869577956795B7952C
S1130F40F795E7959F5FC1F7FE2B880F911D969546
S10D0F50879597F90895F894FFCFF0
S9030000FC
