:100000000C9434000C9446000C9446000C9446006A
:100010000C9446000C9446000C9446000C94460048
:100020000C9446000C9446000C9446000C94460038
:100030000C9446000C9446000C9446000C94460028
:100040000C9446000C9446000C9446000C94460018
:100050000C9446000C9446000C9446000C94460008
:100060000C9446000C94460011241FBECFEFD8E03C
:10007000DEBFCDBF21E0A0E0B1E001C01D92A03005
:10008000B207E1F70E94A4040C944C060C94000003
:10009000ECEBF0E0108294EA908390819923ECF7E6
:1000A0008093BB0084E88093BC00ECEBF0E080819F
:1000B0008823ECF78091B90008958093BB0084E811
:1000C0008093BC00ECEBF0E080818823ECF780911A
:1000D000B9000895882331F084EC8093BC00ECEBE8
:1000E000F0E004C084E88093BC00F9CF80818823CD
:1000F000ECF78091BB000895ECEBF0E084E980839D
:100100008AE08A95F1F700C0108284E48083089524
:1001100098E29A95F1F71092BC003D9A90E0AC01FC
:10012000440F551F440F551F440F551F480F591FAB
:10013000141615069CF520E030E0E8EBF0E0459A57
:100140009081903229F48AE48A95F1F700C00CC0BE
:100150009081923029F492E19A95F1F700C004C0A1
:100160008AE48A95F1F700C045989081903229F48D
:100170009AE49A95F1F700C00CC09081923029F46E
:1001800082E18A95F1F700C004C09AE49A95F1F7EC
:1001900000C02F5F3F4F2417350789F680E388B9E9
:1001A0008AE68A95F1F700C00895CF93DF93C82FB0
:1001B000D92F82E00E9448008D2F0E945D008C2F75
:1001C0000E945D000E947C00DF91CF9108958FE135
:1001D0009EE40197F1F700C0000082E08093B80030
:1001E00087B1807F87B918B888B18F6088B98AE2F3
:1001F0008093BA000895E4E6F0E080818E7F8083EA
:1002000086E680937C0086E880937A00089581E0FA
:100210000E94880086ED0E94480080E10E945D00F7
:1002200083E90E945D000E947C000895CF93C82F4F
:100230008EEE0E944800C43091F028F4C130B9F02D
:10024000C23089F017C0C83031F0C03199F480E174
:100250000E945D000FC088E00E945D000BC084E03A
:100260000E945D0007C082E00E945D0003C081E043
:100270000E945D000E947C00CF910895CF93DF9390
:1002800081E00E948800C0E0D0E0C130D10549F093
:10029000C230D10551F0209759F481E00E94160137
:1002A00007C084E00E94160103C080E10E9416018D
:1002B00082E00E94880086E20E94480082E80E9454
:1002C0005D0087E00E945D000E947C008AE18A95C3
:1002D000F1F700C086E20E94480083E80E945D00BA
:1002E00084E10E945D000E947C008AE18A95F1F71A
:1002F00000C086E20E94480080E80E945D0083E022
:100300000E945D000E947C008AE18A95F1F700C09E
:100310002196C330D10509F0B8CFDF91CF91089570
:10032000CF93DF930E94160186E20E94480087E87F
:100330000E945D000E947C008AE18A95F1F700C06E
:1003400087E20E94480081E00E946A00C82F80E096
:100350000E946A00D82F0E947C008AE18A95F1F7FA
:1003600000C08C2F90E0982F88278D0F911DDF9172
:10037000CF910895CF93DF9386ED0E9448008CE1E2
:100380000E945D0087ED0E94480081E00E946A00A3
:10039000D82F80E00E946A00C82F0E947C008C2F1A
:1003A00090E0982F88278D0F911DDF91CF910895B0
:1003B000549A5C9A2FEF80E792E021508040904061
:1003C000E1F700C000005C980895EAE7F0E0808162
:1003D000806480832FEF80E792E02150804090403E
:1003E000E1F700C0000080917900893B60F40E9431
:1003F000D8012FEF84E39CE0215080409040E1F74A
:1004000000C00000F4CF0895009759F02FEF39E6AF
:1004100048E1215030404040E1F700C00000019722
:10042000A9F708958F929F92AF92BF92CF92DF92D9
:10043000EF92FF92CF93DF93EA01861B970B4C015B
:10044000990FAA08BB08C501B4010E945305288171
:1004500039814A815B810E94DF050E941B056B0187
:100460007C0188859985AA85BB85BC01CD01680D75
:10047000791D8A1D9B1D688779878A879B870E94C3
:1004800053052C813D814E815F810E94DF050E94D2
:100490001B05611520E872078105910564F4613040
:1004A00020E872072FEF820792074CF462E070E8B1
:1004B0008FEF9FEF04C06EEF7FE780E090E00D2CA0
:1004C000000CEE08FF08DC01CB018C0D9D1DAE1D5C
:1004D000BF1D81382FEF9207A207B20724F481E8ED
:1004E0009FEFAFEFBFEF80389105A105B10524F074
:1004F0008FE790E0A0E0B0E0DF91CF91FF90EF9028
:10050000DF90CF90BF90AF909F908F900895682F0D
:1005100084B1866084B983E0809381006623C4F44B
:10052000619581E880938000062E000C770B880B84
:10053000990B0E94530523E333E343E250E40E9406
:10054000DF050E942205709389006093880008955A
:10055000611104C081E080938000089581E280935E
:100560008000062E000C770B880B990B0E94530518
:1005700023E333E343E250E40E94DF050E942205B7
:1005800070938B0060938A000895682F8AB180660B
:100590008AB983E085BD6623A4F4619581E284BDB8
:1005A000062E000C770B880B990B0E94530523E352
:1005B00033E343E250E40E94DF050E94220568BD58
:1005C0000895611103C081E084BD089581E884BD70
:1005D000062E000C770B880B990B0E94530523E322
:1005E00033E343E250E40E94DF050E94220567BD29
:1005F000089594B1966094B993E090938100662336
:1006000049F091E89093800090E090938900809366
:1006100088000895811104C081E0809380000895CE
:1006200091E29093800090E090938B0080938A00F9
:1006300008959AB190669AB993E095BD662321F02A
:1006400091E294BD88BD0895811103C081E084BD0D
:10065000089591E894BD87BD08952F923F924F92DF
:100660005F926F927F928F929F92AF92BF92CF9242
:10067000DF92EF92FF920F931F93CF93DF93CDB74B
:10068000DEB7A6970FB6F894DEBF0FBECDBF2C0124
:100690000E94BA014C0186B181708DA386B182702F
:1006A0008EA38FE892ECA5EFBBE389839A83AB839B
:1006B000BC838FE692E1A3E8BAE38D839E83AF8388
:1006C000B88719861A861B861C868EE790E09E875F
:1006D0008D8740EC51EA6FEE7FE34F87588B698B33
:1006E0007A8B4AE057ED63E27BE34B8B5C8B6D8B3F
:1006F0007E8B44E350E867E37AE34F8B588F698F32
:100700007A8F1B8E1C8E1D8E1E8E98A38F8F80E07D
:100710009AE8A4EFBFE389A39AA3ABA3BCA3C12C1F
:10072000D12C0F2EF1E43F2EF02D0E94BA015C0176
:10073000A818B90880E10E9490018C0181E00E9414
:100740009001081B190BAE014F5F5F4FB50180E0B0
:1007500090E00E9412027C01AE014D5E5F4FB80135
:1007600080E090E00E941202282E08511C4F013DAB
:10077000174038F00E94D8011B8E1C8E1D8E1E8ED5
:10078000212CC5010E94D500882799278E199F0921
:100790000E94D500C7018F5B9F4F833891053CF4C1
:1007A000992354F40F2EFFEBEF2EF02D05C00F2EE2
:1007B000F1E4EF2EF12CF02D832D821960E08E19DB
:1007C0000E94F90281E4820D60E08E0D0E941903FF
:1007D00086B180FB662460F8712C4DA1842F440FF4
:1007E000990B6816790631F086B181708DA38FEF71
:1007F000C81AD80A86B1827090E04EA1242F440F07
:10080000330B8217930731F086B182708EA38FEF7E
:10081000C81AD80AC414D50438F48FE19EE40197AD
:10082000F1F700C0000081CFA6960FB6F894DEBFA6
:100830000FBECDBFDF91CF911F910F91FF90EF9031
:10084000DF90CF90BF90AF909F908F907F906F90F0
:100850005F904F903F902F900895AF92BF92CF92AC
:10086000DF92EF92FF920F931F93CF93DF93CDB759
:10087000DEB762970FB6F894DEBF0FBECDBF0E9401
:10088000BA015C0182E490E6A5EEBBE389839A831A
:10089000AB83BC8382E898EAABEFB7E38D839E839A
:1008A000AF83B88719861A861B861C868EE790E070
:1008B0009E878D8780E092E8AFEFBFE38F87988BAC
:1008C000A98BBA8B00E010E00F2EF4E6CF2ED12CCE
:1008D000F02D0F2EFDEFEF2EF02D0E94BA019C019E
:1008E0002A193B09C901B6010E94F304060F171F1C
:1008F0000D3F88E01807BCF4AE014F5F5F4FB901B0
:1009000088EB9BE00E941202F82E8E2D8F190E9418
:1009100087028F2D0E94C5028FE19EE40197F1F7B7
:1009200000C00000DACF62960FB6F894DEBF0FBEAB
:10093000CDBFDF91CF911F910F91FF90EF90DF908E
:10094000CF90BF90AF9008950E94E7000E94FB00F7
:100950000E9407010E943E0182E08093B80080E07F
:1009600090E005C0329910C01AC080E090E0EFE13D
:10097000FEE43197F1F700C00000329BF6CF0196FC
:1009800084309105A4F3EECFFFE728E381E0F15036
:1009900020408040E1F700C000003299F5CF0E946E
:1009A000D8010E94E50182E090E00E94040280E20A
:1009B0009EE40E942D0380E00E94870280E00E9456
:1009C000C5029FEFE4E3FCE09150E040F040E1F726
:1009D00000C000000E942D048FE19EE40197F1F712
:1009E00000C00000F9CF97FB072E16F4009407D043
:1009F00077FD09D00E94070507FC05D03EF49095CD
:100A000081959F4F0895709561957F4F0895AA1B1A
:100A1000BB1B51E107C0AA1FBB1FA617B70710F0E9
:100A2000A61BB70B881F991F5A95A9F7809590951B
:100A3000BC01CD0108950E9422056894B1110C9467
:100A4000D90508950E94BE0588F09F5798F0B92FE8
:100A50009927B751B0F0E1F0660F771F881F991FF3
:100A60001AF0BA95C9F714C0B13091F00E94D805B8
:100A7000B1E008950C94D805672F782F8827B85FC8
:100A800039F0B93FCCF3869577956795B395D9F74B
:100A90003EF490958095709561957F4F8F4F9F4F55
:100AA0000895E89409C097FB3EF490958095709561
:100AB00061957F4F8F4F9F4F9923A9F0F92F96E9AA
:100AC000BB279395F695879577956795B795F1111F
:100AD000F8CFFAF4BB0F11F460FF1BC06F5F7F4FBC
:100AE0008F4F9F4F16C0882311F096E911C07723CE
:100AF00021F09EE8872F762F05C0662371F096E8D7
:100B0000862F70E060E02AF09A95660F771F881FA5
:100B1000DAF7880F9695879597F9089597F99F6763
:100B200080E870E060E008959FEF80EC0895002475
:100B30000A941616170618060906089500240A9442
:100B400012161306140605060895092E0394000CC8
:100B500011F4882352F0BB0F40F4BF2B11F460FF57
:100B600004C06F5F7F4F8F4F9F4F089557FD905880
:100B7000440F551F59F05F3F71F04795880F97FB61
:100B8000991F61F09F3F79F087950895121613061B
:100B90001406551FF2CF4695F1DF08C0161617064A
:100BA0001806991FF1CF869571056105089408957F
:100BB000E894BB2766277727CB0197F908950E9411
:100BC000F2050C94A5050E94970538F00E949E0539
:100BD00020F0952311F00C948E050C9494051124AB
:100BE0000C94D9050E94B60570F3959FC1F3950F3B
:100BF00050E0551F629FF001729FBB27F00DB11DA1
:100C0000639FAA27F00DB11DAA1F649F6627B00D30
:100C1000A11D661F829F2227B00DA11D621F739F19
:100C2000B00DA11D621F839FA00D611D221F749F27
:100C30003327A00D611D231F849F600D211D822F6E
:100C4000762F6A2F11249F5750409AF0F1F0882395
:100C50004AF0EE0FFF1FBB1F661F771F881F9150C2
:100C60005040A9F79E3F510580F00C948E050C94DE
:100C7000D9055F3FE4F3983ED4F386957795679561
:100C8000B795F795E7959F5FC1F7FE2B880F911DEC
:0C0C90009695879597F90895F894FFCF8A
:00000001FF
