:100000000C9434000C9446000C9446000C9446006A
:100010000C9446000C9446000C9446000C94460048
:100020000C9446000C9446000C9446000C94460038
:100030000C9446000C9446000C9446000C94460028
:100040000C9446000C9446000C9446000C94460018
:100050000C9446000C9446000C9446000C94460008
:100060000C9446000C94460011241FBECFEFD8E03C
:10007000DEBFCDBF21E0A0E0B1E001C01D92A03005
:10008000B207E1F70E9419010C9466030C9400007A
:1000900094EA9093BC00ECEBF0E090819923ECF7AC
:1000A0008093BB0084E88093BC00ECEBF0E080819F
:1000B0008823ECF78091B90008958093BB0084E811
:1000C0008093BC00ECEBF0E080818823ECF780911A
:1000D000B9000895882321F084EC8093BC0003C00C
:1000E00084E88093BC0084E690E0ECEBF0E02081B3
:1000F000222314F00197D9F78091BB00089584E979
:100100008093BC000895682F84B1866084B983E031
:10011000809381006623C4F4619581E88093800018
:10012000062E000C770B880B990B0E946D0223E3BF
:1001300033E343E250E40E94F9020E943C027093D0
:100140008900609388000895611104C081E0809364
:100150008000089581E280938000062E000C770BCA
:10016000880B990B0E946D0223E333E343E250E4D2
:100170000E94F9020E943C0270938B0060938A00F7
:100180000895682F8AB180668AB983E085BD6623A9
:10019000A4F4619581E284BD062E000C770B880BD8
:1001A000990B0E946D0223E333E343E250E40E9483
:1001B000F9020E943C0268BD0895611103C081E00C
:1001C00084BD089581E884BD062E000C770B880B52
:1001D000990B0E946D0223E333E343E250E40E9453
:1001E000F9020E943C0267BD0895CF93C62F0E947A
:1001F00083008C2F0E94C100CF910895009759F081
:100200002FEF39E648E1215030404040E1F700C08F
:1002100000000197A9F708956CEE87EE0E94F500A3
:1002200082E090E00E94FE0060E080E00E94F50025
:10023000089587B1807F87B9419888B18C6088B96B
:10024000329B0BC02FE788E391E021508040904023
:10025000E1F700C000003299F5CF89E10E948300E8
:100260002FE78AE196E0215080409040E1F700C0FE
:10027000000080E00E94830081E090E00E94FE0088
:100280000E940C0185E090E00E94FE0080E28093D5
:10029000B80080E388B982E090E00E94FE008EEE14
:1002A0000E94480084E00E945D000E947F0087EE6B
:1002B00093E00197F1F700C000003D9A84E190E0DF
:1002C000459822E12A95F1F700C0459A22E12A9546
:1002D000F1F700C00197A1F73D988AEA0E94480013
:1002E0008AEA0E945D000E947F0087EE93E00197FA
:1002F000F1F700C000008FE99FE00197F1F700C01F
:10030000000086E20E94480083E80E945D0084E1CC
:100310000E945D000E947F0087EC90E00197F1F75A
:1003200000C0000086E20E9448008FE80E945D0045
:1003300083E00E945D000E947F0087EC90E00197BF
:10034000F1F700C0000086E20E94480089E80E94A0
:100350005D0088E00E945D000E947F0087EC90E0D5
:100360000197F1F700C0000086E20E94480082E891
:100370000E945D0085E00E945D000E947F0087EC86
:1003800090E00197F1F700C0000087EC90E0019742
:10039000F1F700C0000086E20E9448008EE80E944B
:1003A0005D008FE00E945D000E947F009AE19A95B7
:1003B000F1F700C086E20E94480080E80E945D00DC
:1003C00088E00E945D000E947F0086E20E94480053
:1003D00080E80E945D000E947F0025E32A95F1F7E6
:1003E000000087E20E94480080E00E946A00C82F57
:1003F0000E947F0085E38A95F1F70000C5FF37C0B2
:1004000086E20E94480087E80E945D000E947F000B
:1004100095E39A95F1F7000087E20E94480081E099
:100420000E946A0080E00E946A000E947F008FECB8
:1004300097E00197F1F700C0000086E20E944800B3
:100440008EE80E945D008FE00E945D000E947F00A8
:100450009AE19A95F1F700C086E20E94480080E890
:100460000E945D0088E00E945D000E947F0081E0A4
:1004700090E00E94FE00A9CF0E94D80288F09F570A
:1004800098F0B92F9927B751B0F0E1F0660F771FB8
:10049000881F991F1AF0BA95C9F714C0B13091F0AE
:1004A0000E94F202B1E008950C94F202672F782FB7
:1004B0008827B85F39F0B93FCCF386957795679573
:1004C000B395D9F73EF490958095709561957F4FDF
:1004D0008F4F9F4F0895E89409C097FB3EF4909585
:1004E0008095709561957F4F8F4F9F4F9923A9F00D
:1004F000F92F96E9BB279395F6958795779567959C
:10050000B795F111F8CFFAF4BB0F11F460FF1BC0DF
:100510006F5F7F4F8F4F9F4F16C0882311F096E972
:1005200011C0772321F09EE8872F762F05C0662320
:1005300071F096E8862F70E060E02AF09A95660FD9
:10054000771F881FDAF7880F9695879597F9089592
:1005500097F99F6780E870E060E008959FEF80EC76
:10056000089500240A941616170618060906089519
:1005700000240A9412161306140605060895092E7F
:100580000394000C11F4882352F0BB0F40F4BF2BEE
:1005900011F460FF04C06F5F7F4F8F4F9F4F08952E
:1005A00057FD9058440F551F59F05F3F71F0479524
:1005B000880F97FB991F61F09F3F79F08795089509
:1005C000121613061406551FF2CF4695F1DF08C028
:1005D000161617061806991FF1CF86957105610545
:1005E00008940895E894BB2766277727CB0197F9ED
:1005F00008950E940C030C94BF020E94B10238F0CF
:100600000E94B80220F0952311F00C94A8020C94DB
:10061000AE0211240C94F3020E94D00270F3959F55
:10062000C1F3950F50E0551F629FF001729FBB27E9
:10063000F00DB11D639FAA27F00DB11DAA1F649F85
:100640006627B00DA11D661F829F2227B00DA11D38
:10065000621F739FB00DA11D621F839FA00D611DBE
:10066000221F749F3327A00D611D231F849F600DDF
:10067000211D822F762F6A2F11249F5750409AF008
:10068000F1F088234AF0EE0FFF1FBB1F661F771F94
:10069000881F91505040A9F79E3F510580F00C945F
:1006A000A8020C94F3025F3FE4F3983ED4F38695DE
:1006B00077956795B795F795E7959F5FC1F7FE2BFF
:1006C000880F911D9695879597F90895F894FFCF17
:00000001FF
