:100000000C9434000C9446000C9446000C9446006A
:100010000C9446000C9446000C9446000C94460048
:100020000C9446000C9446000C9446000C94460038
:100030000C9446000C9446000C9446000C94460028
:100040000C9446000C9446000C9446000C94460018
:100050000C9446000C9446000C9446000C94460008
:100060000C9446000C94460011241FBECFEFD8E03C
:10007000DEBFCDBF21E0A0E0B1E001C01D92A03005
:10008000B207E1F70E94CA020C94D5040C94000058
:1000900094EA9093BC00ECEBF0E090819923ECF7AC
:1000A0008093BB0084E88093BC00ECEBF0E080819F
:1000B0008823ECF78091B90008958093BB0084E811
:1000C0008093BC00ECEBF0E080818823ECF780911A
:1000D000B9000895882321F084EC8093BC0003C00C
:1000E00084E88093BC0084E690E0ECEBF0E02081B3
:1000F000222314F00197D9F78091BB00089548E2BC
:100100004A95F1F71092BC003D9A90E09C01220FB5
:10011000331F220F331F220F331F820F931F181616
:1001200019068CF420E030E0459A42E14A95F1F757
:1001300000C0459842E14A95F1F700C02F5F3F4F5C
:100140002817390789F780E388B988E28A95F1F79B
:100150000895CF93C82F8EEE0E944800C23081F0E0
:1001600018F4C13089F013C0C43031F0C03179F4D3
:1001700080E10E945D000BC084E00E945D0007C02A
:1001800082E00E945D0003C081E00E945D0084E97E
:100190008093BC00CF9108958FE19EE40197F1F721
:1001A00000C0000087B1807F87B918B888B18F6020
:1001B00088B90895EF92FF921F93CF93DF9381E068
:1001C0000E947F00C0E0D0E00F2EFCEBEF2EF12C60
:1001D000F02D14E9C130D10549F0C230D10551F0FC
:1001E000209759F481E00E94A90007C084E00E9492
:1001F000A90003C080E10E94A90082E00E947F0064
:1002000086E20E94480082E80E945D0085E00E942C
:100210005D00F7011083FAE1FA95F1F700C086E27C
:100220000E94480083E80E945D0084E10E945D0016
:10023000F7011083FAE1FA95F1F700C086E20E9417
:10024000480080E80E945D0083E00E945D00F701A5
:100250001083FAE1FA95F1F700C02196C330D10579
:1002600009F0B8CFDF91CF911F91FF90EF900895E3
:10027000682F84B1866084B983E08093810066230F
:10028000C4F4619581E880938000062E000C770B02
:10029000880B990B0E94B80323E333E343E250E455
:1002A0000E9468040E94870370938900609388000D
:1002B0000895611104C081E080938000089581E277
:1002C00080938000062E000C770B880B990B0E9400
:1002D000B80323E333E343E250E40E9468040E943E
:1002E000870370938B0060938A0008950F931F9388
:1002F000CF93DF930E94A90086E20E94480087E81E
:100300000E945D000CEB10E0D4E9F801D083FAE123
:10031000FA95F1F700C087E20E94480081E00E9450
:100320006A00C82F80E00E946A00F801D083FAE1D9
:10033000FA95F1F700C02C2F30E0322F2227A901C7
:10034000480F511DCA01DF91CF911F910F91089560
:10035000009759F02FEF39E648E1215030404040F6
:10036000E1F700C000000197A9F7089594B19660E5
:1003700094B993E090938100662349F091E89093BB
:10038000800090E090938900809388000895811107
:1003900004C081E080938000089591E290938000F2
:1003A00090E090938B0080938A0008959AB19066B4
:1003B0009AB993E095BD662321F091E294BD88BD82
:1003C0000895811103C081E084BD089591E894BD32
:1003D00087BD0895CF93DF9300D000D0CDB7DEB7AF
:1003E00060E08FE30E94B60160E086E40E94D601DF
:1003F000812C912C5401412C312CD12CC12C212C3D
:100400000F2EFFE35F2EF02D5982642C7D2CFC2CE7
:1004100080E10E9476018C0181E00E9476019B833D
:100420008A8384E00E947601045D1E4F2A813B810D
:10043000201B310BB901330F880B990B0E94B803B5
:100440006C837A83182F092F2AE037ED43EA5BE3A8
:100450000E9468040E9480036C3E3FEF730714F40F
:100460006CEE7FEF2B016531710524F00F2EF4E166
:100470004F2EF02D2C813A81412F502F662D732D58
:10048000872D9F2D0E940E0320E030E0A9010E94DD
:1004900068040E948003F62E2C813A81412F502F50
:1004A000C501B4010E940F034B015C012DEC3CEC33
:1004B0004CEC5DE30E9468040E948003762E20E0ED
:1004C00030E04CE852E46C817A81812F902F0E94B9
:1004D0000F0320E030E0A9010E947B038823C4F1D0
:1004E000C42CEF2CD72C872D8F0D8A5B60E0840DF8
:1004F0000E94D6012C813A81412F502F60E070E09C
:100500008CE792E40E940E0320E030E0A9010E94F3
:100510007B0388235CF4612C312C0F2EFCE77F2EAB
:10052000F02D0F2EF2E4FF2EF02D04C06C803A80E7
:10053000712EF02E89818D19EC0C60E08E190E94CD
:10054000B6018FE19EE40197F1F700C0000060CF93
:10055000C42CEF2CD72C872D8F0D8A5B60E0840D87
:100560000E94D601612C312C0F2EFCE87F2EF02D3D
:100570000F2EF2ECFF2EF02DDDCF549A5C9A2FEF68
:1005800080E792E0215080409040E1F700C00000F9
:100590005C9808950E94CC000E94DA0082E080936B
:1005A000B80080E090E005C0329910C01AC080E029
:1005B00090E0EFE1FEE43197F1F700C00000329BDC
:1005C000F6CF019684309105A4F3EECFFFE728E340
:1005D00081E0F15020408040E1F700C000003299F6
:1005E000F5CF0E94BD0282E090E00E94A8010E9427
:1005F000EA0180E28093B80088EC90E00E94A801B4
:1006000081E00E947601893B9B4024F089E10E94B1
:100610003801F6CF8CE10E943801F2CF5058BB2749
:10062000AA270E9426030C942E040E94200438F06E
:100630000E94270420F039F49F3F19F426F40C940B
:100640001D040EF4E095E7FB0C941704E92F0E94BB
:100650003F0458F3BA17620773078407950720F021
:1006600079F4A6F50C9461040EF4E0950B2EBA2FE4
:10067000A02D0B01B90190010C01CA01A0011124A8
:10068000FF27591B99F0593F50F4503E68F11A1654
:10069000F040A22F232F342F4427585FF3CF4695E5
:1006A00037952795A795F0405395C9F77EF41F1607
:1006B000BA0B620B730B840BBAF09150A1F0FF0FD1
:1006C000BB1F661F771F881FC2F70EC0BA0F621FBD
:1006D000731F841F48F4879577956795B795F795AD
:1006E0009E3F08F0B0CF9395880F08F09927EE0F42
:1006F0009795879508950E94F30308F481E0089583
:100700000E9487036894B1110C94620408950E94BA
:10071000470488F09F5798F0B92F9927B751B0F048
:10072000E1F0660F771F881F991F1AF0BA95C9F775
:1007300014C0B13091F00E946104B1E008950C94AE
:100740006104672F782F8827B85F39F0B93FCCF361
:10075000869577956795B395D9F73EF490958095F2
:10076000709561957F4F8F4F9F4F0895E89409C012
:1007700097FB3EF490958095709561957F4F8F4FD4
:100780009F4F9923A9F0F92F96E9BB279395F695EA
:10079000879577956795B795F111F8CFFAF4BB0F68
:1007A00011F460FF1BC06F5F7F4F8F4F9F4F16C0CC
:1007B000882311F096E911C0772321F09EE8872F56
:1007C000762F05C0662371F096E8862F70E060E012
:1007D0002AF09A95660F771F881FDAF7880F96958B
:1007E000879597F90895990F0008550FAA0BE0E82F
:1007F000FEEF16161706E807F907C0F012161306E3
:10080000E407F50798F0621B730B840B950B39F422
:100810000A2661F0232B242B252B21F408950A2688
:1008200009F4A140A6958FEF811D811D089597F9C8
:100830009F6780E870E060E008959FEF80EC089586
:1008400000240A94161617061806090608950024AF
:100850000A9412161306140605060895092E039429
:10086000000C11F4882352F0BB0F40F4BF2B11F49D
:1008700060FF04C06F5F7F4F8F4F9F4F089557FDFC
:100880009058440F551F59F05F3F71F04795880FFE
:1008900097FB991F61F09F3F79F087950895121695
:1008A00013061406551FF2CF4695F1DF08C0161641
:1008B00017061806991FF1CF8695710561050894F2
:1008C0000895E894BB2766277727CB0197F9089509
:1008D0000E947B040C942E040E94200438F00E9495
:1008E000270420F0952311F00C9417040C941D0498
:1008F00011240C9462040E943F0470F3959FC1F38D
:10090000950F50E0551F629FF001729FBB27F00DBD
:10091000B11D639FAA27F00DB11DAA1F649F662712
:10092000B00DA11D661F829F2227B00DA11D621F61
:10093000739FB00DA11D621F839FA00D611D221F1B
:10094000749F3327A00D611D231F849F600D211DFF
:10095000822F762F6A2F11249F5750409AF0F1F082
:1009600088234AF0EE0FFF1FBB1F661F771F881FEB
:1009700091505040A9F79E3F510580F00C94170408
:100980000C9462045F3FE4F3983ED4F38695779528
:100990006795B795F795E7959F5FC1F7FE2B880F91
:0E09A000911D9695879597F90895F894FFCFCD
:00000001FF
