:100000000C9434000C9446000C9446000C9446006A
:100010000C9446000C9446000C9446000C94460048
:100020000C9446000C9446000C9446000C94460038
:100030000C9446000C9446000C9446000C94460028
:100040000C9446000C9446000C9446000C94460018
:100050000C9446000C9446000C9446000C94460008
:100060000C9446000C94460011241FBECFEFD8E03C
:10007000DEBFCDBF21E0A0E0B1E001C01D92A03005
:10008000B207E1F70E94ED030C94DE050C9400002A
:1000900094EA9093BC00ECEBF0E090819923ECF7AC
:1000A0008093BB0084E88093BC00ECEBF0E080819F
:1000B0008823ECF78091B90008958093BB0084E811
:1000C0008093BC00ECEBF0E080818823ECF780911A
:1000D000B9000895882331F084EC8093BC00ECEBE8
:1000E000F0E004C084E88093BC00F9CF80818823CD
:1000F000ECF78091BB00089598E29A95F1F7109281
:10010000BC003D9A90E0AC01440F551F440F551FB1
:10011000440F551F480F591F141615069CF520E073
:1001200030E0E8EBF0E0459A9081903229F48AE4DF
:100130008A95F1F700C00CC09081923029F492E1C9
:100140009A95F1F700C004C08AE48A95F1F700C0DF
:1001500045989081903229F49AE49A95F1F700C07D
:100160000CC09081923029F482E18A95F1F700C0A9
:1001700004C09AE49A95F1F700C02F5F3F4F24170F
:10018000350789F680E388B98AE68A95F1F700C0D9
:1001900008958FE19EE40197F1F700C0000082E02E
:1001A0008093B80087B1807F87B918B888B18F6015
:1001B00088B90895CF93C82F8EEE0E944800C430AE
:1001C00091F028F4C130B9F0C23089F017C0C830BE
:1001D00031F0C03199F480E10E945D000FC088E0E9
:1001E0000E945D000BC084E00E945D0007C082E0B9
:1001F0000E945D0003C081E00E945D0084E980935D
:10020000BC00CF910895EF92FF921F93CF93DF939D
:1002100081E00E947C00C0E0D0E00F2EFCEBEF2ECE
:10022000F12CF02D14E9C130D10549F0C230D105CF
:1002300051F0209759F481E00E94DA0007C084E071
:100240000E94DA0003C080E10E94DA0082E00E948E
:100250007C0086E20E94480082E80E945D0085E002
:100260000E945D00F7011083FAE1FA95F1F700C0F2
:1002700086E20E94480083E80E945D0084E10E94BB
:100280005D00F7011083FAE1FA95F1F700C086E20C
:100290000E94480080E80E945D0083E00E945D00AB
:1002A000F7011083FAE1FA95F1F700C02196C33007
:1002B000D10509F0B8CFDF91CF911F91FF90EF905A
:1002C00008950F931F93CF93DF930E94DA0086E285
:1002D0000E94480087E80E945D000CEB10E0D4E922
:1002E000F801D083FAE1FA95F1F700C087E20E94A5
:1002F000480081E00E946A00C82F80E00E946A00E6
:10030000F801D083FAE1FA95F1F700C02C2F30E024
:10031000322F2227A901480F511DCA01DF91CF9129
:100320001F910F910895549A5C9A2FEF80E792E005
:10033000215080409040E1F700C000005C98089593
:10034000009759F02FEF39E648E121503040404006
:10035000E1F700C000000197A9F70895682F84B164
:10036000866084B983E0809381006623C4F461953C
:1003700081E880938000062E000C770B880B990B88
:100380000E94E50423E333E343E250E40E94710555
:100390000E94B404709389006093880008956111ED
:1003A00004C081E080938000089581E28093800002
:1003B000062E000C770B880B990B0E94E50423E3B3
:1003C00033E343E250E40E9471050E94B404709349
:1003D0008B0060938A000895682F8AB180668AB97D
:1003E00083E085BD6623A4F4619581E284BD062E79
:1003F000000C770B880B990B0E94E50423E333E391
:1004000043E250E40E9471050E94B40468BD08955F
:10041000611103C081E084BD089581E884BD062E8A
:10042000000C770B880B990B0E94E50423E333E360
:1004300043E250E40E9471050E94B40467BD089530
:10044000CF93C62F0E94AE018C2F0E94EC01CF915A
:10045000089594B1966094B993E0909381006623D7
:1004600049F091E89093800090E090938900809308
:1004700088000895811104C081E080938000089570
:1004800091E29093800090E090938B0080938A009B
:1004900008959AB190669AB993E095BD662321F0CC
:1004A00091E294BD88BD0895811103C081E084BDAF
:1004B000089591E894BD87BD0895882321F081E0D7
:1004C00084BD80E68BB9662329F081E080938000AB
:1004D00086E085B90895CF92DF92EF92FF920F9355
:1004E0001F93CF93DF9364E184E10E9420022FEFFA
:1004F00084E39CE0215080409040E1F700C0000080
:1005000096B186B1827090FBEE24E0F8F12CC82EF3
:10051000D12C86B18170C82F20E0D22FEC16FD06B9
:1005200021F060E080E00E94290286B1827090E0B4
:10053000C816D90621F060E080E00E94490286B129
:10054000082F017010E0E016F10619F386B18270F1
:1005500090E0C816D906E9F260E080E00E9420022F
:100560000E9493018FEF91EE24E081509040204053
:10057000E1F700C000000E94930182E090E00E9439
:10058000A001DF91CF911F910F91FF90EF90DF902D
:10059000CF9008958F929F92AF92BF92CF92DF92A9
:1005A000EF92FF920F931F93CF93DF93BC01990FAC
:1005B000880B990B0E94E5042AE939E949E050E4E7
:1005C0000E943B040E94AD046B0160E086E40E943F
:1005D000290260E083E40E94490286B18170982E6E
:1005E000812CE12CF12C80E10E946101EC0181E081
:1005F0000E9461018C0184E00E94610146B1292DB5
:1006000030E040FBAA24A0F8B12C2A153B0571F07C
:100610002FEFE21AF20ACE14DF0429F460E080E042
:100620000E94200255C026B12170922E9E01201BEF
:10063000310B8D3A9D404CF0839485E0881530F461
:1006400061E081E00E945D0243C0812C24349DEF73
:100650003907BCF40D3A1D404CF060E08EE30E9477
:10066000290260E083E40E94490208C060E086E459
:100670000E94290260E08FE30E9449020E949301D8
:1006800020C0293C31054CF060E086E40E9429023C
:1006900060E08EE30E94490214C028333F4F4CF4BF
:1006A00060E08CE30E94290260E083E40E9449023A
:1006B00008C060E086E40E94290260E083E40E94B2
:1006C00049028FE19EE40197F1F700C000008BCF53
:1006D000DF91CF911F910F91FF90EF90DF90CF901E
:1006E000BF90AF909F908F900895EF92FF920F93DD
:1006F0001F93CF93DF93C6B1C170D6B1D27061E0C2
:1007000081E40E94290260E083E40E944902F12C06
:10071000E12C26B18C2F90E0022F017010E08017A1
:10072000910799F0C6B1C170E39483E0E81239C033
:1007300060E080E00E94290286B12D2F30E08270B7
:1007400090E028173907D9F519C086B12D2F30E070
:10075000827090E02817390771F0D6B1D270F39407
:1007600092E0F91217C060E080E00E94490283E045
:10077000E81210C006C093E0E9120CC082E0F81243
:1007800005C060E080E00E94200220C00F2EF3E050
:10079000EF2EF02D8FE19EE40197F1F700C00000ED
:1007A000B8CF86B12D2F30E0827090E0281739073E
:1007B000A1F6F0CF60E080E00E944902E2CFD6B11E
:1007C000D270F39492E0F912E5CFF4CFDF91CF919C
:1007D0001F910F91FF90EF9008950E94C9000E9411
:1007E000030182E08093B80080E090E005C0329978
:1007F00010C01AC080E090E0EFE1FEE43197F1F71D
:1008000000C00000329BF6CF019684309105A4F31E
:10081000EECFFFE728E381E0F15020408040E1F790
:1008200000C000003299F5CF0E94930182E090E071
:100830000E94A0010E946B0281E390E00E94CA0224
:100840000E94750361E081E00E945D0280E2809376
:10085000B80088EC90E00E94A00181E00E94610154
:10086000893B9B4024F089E10E94AE01F6CF8CE1E8
:100870000E94AE01F2CF0E944F040C9437050E94F3
:10088000300558F00E94290540F029F45F3F29F017
:100890000C94200551110C946B050C9426050E94B4
:1008A000480568F39923B1F3552391F3951B550B34
:1008B000BB27AA2762177307840738F09F5F5F4F33
:1008C000220F331F441FAA1FA9F335D00E2E3AF072
:1008D000E0E832D091505040E695001CCAF72BD08A
:1008E000FE2F29D0660F771F881FBB1F26173707DB
:1008F0004807AB07B0E809F0BB0B802DBF01FF270D
:1009000093585F4F3AF09E3F510578F00C942005C4
:100910000C946B055F3FE4F3983ED4F3869577958E
:100920006795B795F7959F5FC9F7880F911D9695C5
:10093000879597F90895E1E0660F771F881FBB1F21
:10094000621773078407BA0720F0621B730B840BCE
:10095000BA0BEE1F88F7E09508950E94B4046894DE
:10096000B1110C946B0508950E94500588F09F57B3
:1009700098F0B92F9927B751B0F0E1F0660F771FC3
:10098000881F991F1AF0BA95C9F714C0B13091F0B9
:100990000E946A05B1E008950C946A05672F782FCC
:1009A0008827B85F39F0B93FCCF38695779567957E
:1009B000B395D9F73EF490958095709561957F4FEA
:1009C0008F4F9F4F0895E89409C097FB3EF4909590
:1009D0008095709561957F4F8F4F9F4F9923A9F018
:1009E000F92F96E9BB279395F695879577956795A7
:1009F000B795F111F8CFFAF4BB0F11F460FF1BC0EB
:100A00006F5F7F4F8F4F9F4F16C0882311F096E97D
:100A100011C0772321F09EE8872F762F05C066232B
:100A200071F096E8862F70E060E02AF09A95660FE4
:100A3000771F881FDAF7880F9695879597F908959D
:100A400097F99F6780E870E060E008959FEF80EC81
:100A5000089500240A941616170618060906089524
:100A600000240A9412161306140605060895092E8A
:100A70000394000C11F4882352F0BB0F40F4BF2BF9
:100A800011F460FF04C06F5F7F4F8F4F9F4F089539
:100A900057FD9058440F551F59F05F3F71F047952F
:100AA000880F97FB991F61F09F3F79F08795089514
:100AB000121613061406551FF2CF4695F1DF08C033
:100AC000161617061806991FF1CF86957105610550
:100AD00008940895E894BB2766277727CB0197F9F8
:100AE00008950E9484050C9437050E94290538F06A
:100AF0000E94300520F0952311F00C9420050C94F1
:100B0000260511240C946B050E94480570F3959FEF
:100B1000C1F3950F50E0551F629FF001729FBB27F4
:100B2000F00DB11D639FAA27F00DB11DAA1F649F90
:100B30006627B00DA11D661F829F2227B00DA11D43
:100B4000621F739FB00DA11D621F839FA00D611DC9
:100B5000221F749F3327A00D611D231F849F600DEA
:100B6000211D822F762F6A2F11249F5750409AF013
:100B7000F1F088234AF0EE0FFF1FBB1F661F771F9F
:100B8000881F91505040A9F79E3F510580F00C946A
:100B900020050C946B055F3FE4F3983ED4F38695F3
:100BA00077956795B795F795E7959F5FC1F7FE2B0A
:100BB000880F911D9695879597F90895F894FFCF22
:00000001FF
