:100000000C9434000C9451000C9451000C94510049
:100010000C9451000C9451000C9451000C9451001C
:100020000C9451000C9451000C9451000C9451000C
:100030000C9451000C9451000C9451000C945100FC
:100040000C9451000C9451000C9451000C945100EC
:100050000C9451000C9451000C9451000C945100DC
:100060000C9451000C94510011241FBECFEFD8E026
:10007000DEBFCDBF11E0A0E0B1E0EEE9F4E002C0E8
:1000800005900D92A230B107D9F721E0A2E0B1E0CE
:1000900001C01D92A230B207E1F70E94FA000C9451
:1000A0004D020C94000094EA9093BC00ECEBF0E05D
:1000B00090819923ECF78093BB0084E88093BC0087
:1000C000ECEBF0E080818823ECF78091B900089593
:1000D0008093BB0084E88093BC00ECEBF0E080816F
:1000E0008823ECF78091B900089581E08093BC00EB
:1000F0000895682F8AB180668AB983E085BD66233A
:10010000A4F4619581E284BD772767FD7095872F00
:10011000972F0E945E0123E333E343E250E40E9401
:10012000EA010E94300168BD0895611103C081E0B9
:1001300084BD089581E884BD772767FD7095872F7A
:10014000972F0E945E0123E333E343E250E40E94D1
:10015000EA010E94300167BD0895682F84B186606E
:1001600084B983E0809381006623C4F4619581E8BB
:1001700080938000772767FD7095872F972F0E94C7
:100180005E0123E333E343E250E40E94EA010E946C
:10019000300170938900609388000895611104C054
:1001A00081E080938000089581E28093800077272A
:1001B00067FD7095872F972F0E945E0123E333E33D
:1001C00043E250E40E94EA010E94300170938B00E8
:1001D00060938A000895009761F02FEF39E648E1B7
:1001E000215030404040E1F700C0000001970097E7
:1001F000A1F7089580E28093B80080E388B98EEE7D
:100200000E9453008FEF0E9468000E9475002FEF3C
:1002100080E792E0215080409040E1F700C000006C
:1002200086E20E9453008FEF0E9468000E947500D2
:10023000CCE9809100018D5F85361CF4809300012C
:1002400002C0C0930001809100010E94790080915A
:1002500000010E94AD0081E090E00E94EB00E9CF38
:1002600098D088F09F5790F0B92F9927B751A0F0F8
:10027000D1F0660F771F881F991F1AF0BA95C9F73A
:1002800012C0B13081F09FD0B1E008959CC0672FBB
:10029000782F8827B85F39F0B93FCCF386957795EA
:1002A0006795B395D9F73EF49095809570956195D3
:1002B0007F4F8F4F9F4F0895E89409C097FB3EF4FE
:1002C00090958095709561957F4F8F4F9F4F9923A3
:1002D000A9F0F92F96E9BB279395F6958795779521
:1002E0006795B795F111F8CFFAF4BB0F11F460FFE1
:1002F0001BC06F5F7F4F8F4F9F4F16C0882311F039
:1003000096E911C0772321F09EE8872F762F05C04C
:10031000662371F096E8862F70E060E02AF09A95E7
:10032000660F771F881FDAF7880F9695879597F9DC
:10033000089597F99F6780E870E060E008959FEF67
:1003400080EC089500240A9416161706180609066C
:10035000089500240A94121613061406050608953B
:10036000092E0394000C11F4882352F0BB0F40F4C3
:10037000BF2B11F460FF04C06F5F7F4F8F4F9F4F03
:10038000089557FD9058440F551F59F05F3F71F085
:100390004795880F97FB991F61F09F3F79F08795EC
:1003A0000895121613061406551FF2CF4695F1DF75
:1003B00008C0161617061806991FF1CF8695710505
:1003C000610508940895E894BB2766277727CB0139
:1003D00097F908950BD0C4CFB5DF28F0BADF18F035
:1003E000952309F0A6CFABCF1124EECFCADFA0F33F
:1003F000959FD1F3950F50E0551F629FF001729FBA
:10040000BB27F00DB11D639FAA27F00DB11DAA1FD8
:10041000649F6627B00DA11D661F829F2227B00D25
:10042000A11D621F739FB00DA11D621F839FA00DB0
:10043000611D221F749F3327A00D611D231F849F00
:10044000600D211D822F762F6A2F11249F57504057
:100450008AF0E1F088234AF0EE0FFF1FBB1F661FF2
:10046000771F881F91505040A9F79E3F510570F0AB
:1004700060CFAACF5F3FECF3983EDCF3869577958B
:100480006795B795F795E7959F5FC1F7FE2B880FA6
:0E049000911D9695879597F90895F894FFCFE2
:02049E009C00C0
:00000001FF
