:100000000C9434000C9446000C9446000C9446006A
:100010000C9446000C9446000C9446000C94460048
:100020000C9446000C9446000C9446000C94460038
:100030000C9446000C9446000C9446000C94460028
:100040000C9446000C9446000C9446000C94460018
:100050000C9446000C9446000C9446000C94460008
:100060000C9446000C94460011241FBECFEFD8E03C
:10007000DEBFCDBF21E0A0E0B1E001C01D92A03005
:10008000B207E1F70E9445040C94F1050C940000BE
:1000900094EA9093BC00ECEBF0E090819923ECF7AC
:1000A0008093BB0084E88093BC00ECEBF0E080819F
:1000B0008823ECF78091B90008958093BB0084E811
:1000C0008093BC00ECEBF0E080818823ECF780911A
:1000D000B9000895882331F084EC8093BC00ECEBE8
:1000E000F0E004C084E88093BC00F9CF80818823CD
:1000F000ECF78091BB00089598E29A95F1F7109281
:10010000BC003D9A90E0AC01440F551F440F551FB1
:10011000440F551F480F591F141615069CF520E073
:1001200030E0E8EBF0E0459A9081903229F48AE4DF
:100130008A95F1F700C00CC09081923029F492E1C9
:100140009A95F1F700C004C08AE48A95F1F700C0DF
:1001500045989081903229F49AE49A95F1F700C07D
:100160000CC09081923029F482E18A95F1F700C0A9
:1001700004C09AE49A95F1F700C02F5F3F4F24170F
:10018000350789F680E388B98AE68A95F1F700C0D9
:100190000895CF93DF93C82FD92F82E00E944800A3
:1001A0008D2F0E945D008C2F0E945D0084E980935A
:1001B000BC00DF91CF9108958FE19EE40197F1F7A4
:1001C00000C0000082E08093B80087B1807F87B9CB
:1001D00018B888B18F6088B90895E4E6F0E08081AE
:1001E0008E7F808386E680937C0086E880937A0009
:1001F000089581E00E947C0086ED0E94480080E125
:100200000E945D0083E90E945D0084E98093BC0048
:100210000895CF93C82F8EEE0E944800C43091F00D
:1002200028F4C130B9F0C23089F017C0C83031F0BD
:10023000C03199F480E10E945D000FC088E00E9407
:100240005D000BC084E00E945D0007C082E00E9458
:100250005D0003C081E00E945D0084E98093BC00E2
:10026000CF910895EF92FF921F93CF93DF9381E098
:100270000E947C00C0E0D0E00F2EFCEBEF2EF12CB2
:10028000F02D14E9C130D10549F0C230D10551F04B
:10029000209759F481E00E94090107C084E00E9480
:1002A000090103C080E10E94090182E00E947C00F4
:1002B00086E20E94480082E80E945D0085E00E947C
:1002C0005D00F7011083FAE1FA95F1F700C086E2CC
:1002D0000E94480083E80E945D0084E10E945D0066
:1002E000F7011083FAE1FA95F1F700C086E20E9467
:1002F000480080E80E945D0083E00E945D00F701F5
:100300001083FAE1FA95F1F700C02196C330D105C8
:1003100009F0B8CFDF91CF911F91FF90EF90089532
:10032000CF9386ED0E9448008CE10E945D0087ED2E
:100330000E94480081E00E946A00C82F80E00E946D
:100340006A0094E99093BC0090E0982F88278C0F66
:10035000911DCF910895549A5C9A2FEF80E792E017
:10036000215080409040E1F700C000005C98089563
:10037000EAE7F0E08081806480832FEF80E792E0FD
:10038000215080409040E1F700C00000809179004A
:10039000893B60F40E94AB012FEF84E39CE0215085
:1003A00080409040E1F700C00000F4CF089500972E
:1003B00059F02FEF39E648E1215030404040E1F755
:1003C00000C000000197A9F708958F929F92AF9205
:1003D000BF92CF92DF92EF92FF92CF93DF93EA0129
:1003E000861B970B4C01990FAA08BB08C501B401E5
:1003F0000E94F804288139814A815B810E9484052A
:100400000E94C0046B017C0188859985AA85BB8503
:10041000BC01CD01680D791D8A1D9B1D68877987F8
:100420008A879B870E94F8042C813D814E815F81E1
:100430000E9484050E94C004611520E872078105AE
:10044000910564F4613020E872072FEF820792076C
:100450004CF462E070E88FEF9FEF04C06EEF7FE72F
:1004600080E090E00D2C000CEE08FF08DC01CB01D1
:100470008C0D9D1DAE1DBF1D81382FEF9207A20769
:10048000B20724F481E89FEFAFEFBFEF803891050A
:10049000A105B10524F08FE790E0A0E0B0E0DF9186
:1004A000CF91FF90EF90DF90CF90BF90AF909F9053
:1004B0008F900895682F84B1866084B983E080931B
:1004C00081006623C4F4619581E880938000062E44
:1004D000000C770B880B990B0E94F80423E333E39D
:1004E00043E250E40E9484050E94C704709389008F
:1004F000609388000895611104C081E080938000BA
:10050000089581E280938000062E000C770B880B03
:10051000990B0E94F80423E333E343E250E40E9482
:1005200084050E94C70470938B0060938A0008952D
:10053000682F8AB180668AB983E085BD6623A4F4FA
:10054000619581E284BD062E000C770B880B990B18
:100550000E94F80423E333E343E250E40E9484055D
:100560000E94C70468BD0895611103C081E084BD85
:10057000089581E884BD062E000C770B880B990B3B
:100580000E94F80423E333E343E250E40E9484052D
:100590000E94C70467BD089594B1966094B993E032
:1005A00090938100662349F091E89093800090E059
:1005B00090938900809388000895811104C081E0A0
:1005C00080938000089591E29093800090E0909352
:1005D0008B0080938A0008959AB190669AB993E04F
:1005E00095BD662321F091E294BD88BD08958111E7
:1005F00003C081E084BD089591E894BD87BD08954E
:10060000882321F081E084BD80E68BB9662329F040
:1006100081E08093800086E085B908952F923F9213
:100620004F925F926F927F928F929F92AF92BF9202
:10063000CF92DF92EF92FF920F931F93CF93DF93AE
:10064000CDB7DEB762970FB6F894DEBF0FBECDBF51
:100650003C010E9490014C0186B18170482E86B108
:100660008270582E8FE892ECA5EFBBE389839A83C2
:10067000AB83BC838FE692E1A3E8BAE38D839E83CC
:10068000AF83B88719861A861B861C868EE790E092
:100690009E878D8780EC91EAAFEEBFE38F87988BC2
:1006A000A98BBA8BE12CF12C0F2EFFEB2F2EF02D06
:1006B0000F2EF1E43F2EF02D0E9490015C01A8184E
:1006C000B908AE014F5F5F4FB50180E090E00E9436
:1006D000E5018C01C5010E94C90088279927801B6C
:1006E000910B0E94C900C8018F5B9F4F8338910511
:1006F00024F4992324F4022D02C001E410E060E008
:10070000832D801B0E94CC0260E081E4800F0E9458
:10071000EC0286B180FBCC24C0F8D12C842D042CB3
:10072000000C990BC816D90631F086B18170482E9D
:100730008FEFE81AF80A86B1827090E0252D052C1B
:10074000000C330B8217930731F086B18270582E5C
:100750009FEFE91AF90AE614F70438F48FE19EE4F2
:100760000197F1F700C00000A7CF62960FB6F8948A
:10077000DEBF0FBECDBFDF91CF911F910F91FF90D4
:10078000EF90DF90CF90BF90AF909F908F907F9031
:100790006F905F904F903F902F900895AF92BF92CF
:1007A000CF92DF92EF92FF920F931F93CF93DF933D
:1007B000CDB7DEB762970FB6F894DEBF0FBECDBFE0
:1007C0000E9490015C0182E490E6A5EEBBE3898380
:1007D0009A83AB83BC8382E898EAABEFB7E38D835F
:1007E0009E83AF83B88719861A861B861C868EE780
:1007F00090E09E878D8780E092E8AFEFBFE38F8720
:10080000988BA98BBA8B00E010E00F2EF4E6CF2E68
:10081000D12CF02D0F2EFAEFEF2EF02D0E9490012B
:100820009C012A193B09C901B6010E949804060FD0
:10083000171F0D3F88E01807BCF4AE014F5F5F4FF4
:10084000B90188EB9BE00E94E501F82E8E2D8F19EF
:100850000E945A028F2D0E9498028FE19EE4019718
:10086000F1F700C00000DACF62960FB6F894DEBF51
:100870000FBECDBFDF91CF911F910F91FF90EF90F1
:10088000DF90CF90BF90AF9008950E94DC000E944F
:10089000ED000E94F9000E94320182E08093B800CE
:1008A00080E090E005C0329910C01AC080E090E06E
:1008B000EFE1FEE43197F1F700C00000329BF6CF84
:1008C000019684309105A4F3EECFFFE728E381E0A1
:1008D000F15020408040E1F700C000003299F5CF90
:1008E0000E94AB010E94B80182E090E00E94D70113
:1008F00080E390E00E940E0380E00E945A0280E0B4
:100900000E9498029FEFE4E3FCE09150E040F04049
:10091000E1F700C000000E94CE0361E081E00E9488
:1009200000038FE19EE40197F1F700C00000F9CFCA
:1009300097FB072E16F4009407D077FD09D00E948C
:10094000AC0407FC05D03EF4909581959F4F089527
:10095000709561957F4F0895AA1BBB1B51E107C09D
:10096000AA1FBB1FA617B70710F0A61BB70B881F3F
:10097000991F5A95A9F780959095BC01CD010895CE
:100980000E94C7046894B1110C947E0508950E94DA
:10099000630588F09F5798F0B92F9927B751B0F0A9
:1009A000E1F0660F771F881F991F1AF0BA95C9F7F3
:1009B00014C0B13091F00E947D05B1E008950C940F
:1009C0007D05672F782F8827B85F39F0B93FCCF3C2
:1009D000869577956795B395D9F73EF49095809570
:1009E000709561957F4F8F4F9F4F0895E89409C090
:1009F00097FB3EF490958095709561957F4F8F4F52
:100A00009F4F9923A9F0F92F96E9BB279395F69567
:100A1000879577956795B795F111F8CFFAF4BB0FE5
:100A200011F460FF1BC06F5F7F4F8F4F9F4F16C049
:100A3000882311F096E911C0772321F09EE8872FD3
:100A4000762F05C0662371F096E8862F70E060E08F
:100A50002AF09A95660F771F881FDAF7880F969508
:100A6000879597F9089597F99F6780E870E060E0AF
:100A700008959FEF80EC089500240A941616170637
:100A800018060906089500240A941216130614067F
:100A900005060895092E0394000C11F4882352F0E2
:100AA000BB0F40F4BF2B11F460FF04C06F5F7F4F9A
:100AB0008F4F9F4F089557FD9058440F551F59F081
:100AC0005F3F71F04795880F97FB991F61F09F3F3B
:100AD00079F087950895121613061406551FF2CF64
:100AE0004695F1DF08C0161617061806991FF1CFB4
:100AF00086957105610508940895E894BB276627DB
:100B00007727CB0197F908950E9497050C944A0521
:100B10000E943C0538F00E94430520F0952311F017
:100B20000C9433050C94390511240C947E050E9415
:100B30005B0570F3959FC1F3950F50E0551F629FC1
:100B4000F001729FBB27F00DB11D639FAA27F00D26
:100B5000B11DAA1F649F6627B00DA11D661F829F4D
:100B60002227B00DA11D621F739FB00DA11D621F32
:100B7000839FA00D611D221F749F3327A00D611D4F
:100B8000231F849F600D211D822F762F6A2F112431
:100B90009F5750409AF0F1F088234AF0EE0FFF1F64
:100BA000BB1F661F771F881F91505040A9F79E3FBB
:100BB000510580F00C9433050C947E055F3FE4F3FF
:100BC000983ED4F3869577956795B795F795E79511
:100BD0009F5FC1F7FE2B880F911D9695879597F91A
:060BE0000895F894FFCF18
:00000001FF
