S01700004D6963726F4D6F7573652B5F365F322E73726563B9
S11300000C9434000C9446000C9446000C94460066
S11300100C9446000C9446000C9446000C94460044
S11300200C9446000C9446000C9446000C94460034
S11300300C9446000C9446000C9446000C94460024
S11300400C9446000C9446000C9446000C94460014
S11300500C9446000C9446000C9446000C94460004
S11300600C9446000C94460011241FBECFEFD8E038
S1130070DEBFCDBF21E0A0E0B1E001C01D92A03001
S1130080B207E1F70E9474020C942B050C94000053
S113009094EA9093BC00ECEBF0E090819923ECF7A8
S11300A08093BB0084E88093BC00ECEBF0E080819B
S11300B08823ECF78091B90008958093BB0084E80D
S11300C08093BC00ECEBF0E080818823ECF7809116
S11300D0B9000895882321F084EC8093BC0003C008
S11300E084E88093BC0084E690E0ECEBF0E02081AF
S11300F0222314F00197D9F78091BB00089584E975
S11301008093BC000895682F84B1866084B983E02D
S1130110809381006623C4F4619581E88093800014
S1130120062E000C770B880B990B0E94320423E3F4
S113013033E343E250E40E94BE040E94010470933E
S11301408900609388000895611104C081E0809360
S11301508000089581E280938000062E000C770BC6
S1130160880B990B0E94320423E333E343E250E407
S11301700E94BE040E94010470938B0060938A0065
S11301800895682F8AB180668AB983E085BD6623A5
S1130190A4F4619581E284BD062E000C770B880BD4
S11301A0990B0E94320423E333E343E250E40E94B8
S11301B0BE040E94010468BD0895611103C081E07A
S11301C084BD089581E884BD062E000C770B880B4E
S11301D0990B0E94320423E333E343E250E40E9488
S11301E0BE040E94010467BD0895009719F40895A0
S11301F0009791F1883E23E0920760F03FEF49E6D3
S1130200E8E131504040E040E1F700C00000885E82
S11302109340EECF8436910560F0FFEF20E732E0A3
S1130220F15020403040E1F700C0000084569109AD
S1130230DFCF8A30910540F0EFE1FEE43197F1F72A
S113024000C000000A97D4CFEFECF7E03197F1F744
S113025000C000000197CCCF0895CF93DF93CDB7B2
S1130260DEB760970FB6F894DEBF0FBECDBFAC010A
S1130270FB0128EE33E0C901BA010E9465035B016A
S1130280C901BF010E9465034B0186B18170C82E6C
S113029086B18270D82E89E10E94830089E10E9490
S11302A0C10085E090E00E94F500412C512C1E868F
S11302B01D8625E030E019861A861B861C861D8261
S11302C01E821F821886388B2F878D2DDC2CC82E1A
S11302D0ED2C0D2C000CFF0886B1082F017010E0E6
S11302E0E016F10651F48F8598892D853E85821B91
S11302F0930BA816B9060CF06CC086B180FB66247B
S113030060F8712CE614F70471F020E030E040E866
S11303105FE36D817E818F8198850E948E036D835A
S11303207E838F8398878F8598892D853E85821B50
S1130330930BB501681B790B072E000C880B990BE6
S11303400E9432042AE939E949E95EE30E94BE04C5
S113035069837A838B839C838F859889B5010E94F6
S11303606503072E000C880B990B0E9432042D8123
S11303703E814F8158850E948D032AE939E949E17C
S11303805EE30E94BE049B01AC0169817A818B818A
S11303909C810E948E0320E030E048EC51E40E94EE
S11303A08E030E94FA03CB01603171050CF480E1E5
S11303B00E94830086B180FB222420F8312CE214B1
S11303C0F30439F086B18170D82E8F8598899E8781
S11303D08D87EC2C0C2C000CFF0886B1827090E009
S11303E0E816F90641F48F859889841995098816C9
S11303F099060CF060C086B1827090E0E816F906A8
S113040071F020E030E040E85FE369857A858B8510
S11304109C850E948E0369877A878B879C878F854A
S1130420988984199509B401681B790B072E000C6F
S1130430880B990B0E9432042AE939E949E95EE301
S11304400E94BE0469837A838B839C838F859889F9
S1130450B4010E946503072E000C880B990B0E94BF
S1130460320429853A854B855C850E948D032AE9EF
S113047039E949E15EE30E94BE049B01AC01698154
S11304807A818B819C810E948E0320E030E048ECCD
S113049051E40E948E030E94FA03862F0E94C10039
S11304A086B1827090E0E816F90629F086B1827070
S11304B0C82E4F84588885E090E00E94F5002F856F
S11304C038892B5F3F4F388B2F8702CF009759F025
S11304D02FEF39E648E1215030404040E1F700C0B9
S11304E000000197A9F7089587B1807F87B94198E3
S11304F088B18C6088B9329B0BC02FE788E391E008
S1130500215080409040E1F700C000003299F5CFBF
S113051089E10E9483002FE78AE196E02150804020
S11305209040E1F700C0000064E070E084E090E0F7
S11305300E942D0181E090E00E94660280E2809397
S1130540B80080E388B982E090E00E9466028FE000
S113055097E20197F1F700C000008EEE0E94480078
S113056080E10E945D000E947F008FE19EE401977C
S1130570F1F700C0000086E20E94480083E80E9470
S11305805D0084E10E945D000E947F008FEC97E093
S11305900197F1F700C0000086E20E9448008FE84E
S11305A00E945D0083E00E945D000E947F0086E25D
S11305B00E94480089E80E945D0088E00E945D0076
S11305C00E947F008FEC97E00197F1F700C00000D4
S11305D08FEC97E00197F1F700C000008FE99FE0EE
S11305E00197F1F700C0000086E20E9448008EE8FF
S11305F00E945D008FE00E945D000E947F009AE1EE
S11306009A95F1F700C086E20E94480080E80E94B3
S11306105D0088E00E945D000E947F0086E20E94E7
S1130620480080E80E945D000E947F0025E32A952F
S1130630F1F7000087E20E94480080E00E946A000F
S1130640C82F0E947F0085E38A95F1F70000C5FF5B
S113065037C086E20E94480087E80E945D000E943D
S11306607F0095E39A95F1F7000087E20E94480025
S113067081E00E946A0080E00E946A000E947F007C
S11306808FE19EE40197F1F700C0000086E20E942A
S113069048008EE80E945D008FE00E945D000E9489
S11306A07F009AE19A95F1F700C086E20E94480023
S11306B080E80E945D0088E00E945D000E947F0047
S11306C081E090E00E946602A9CF97FB072E16F402
S11306D0009407D077FD09D00E94790307FC05D068
S11306E03EF4909581959F4F0895709561957F4F45
S11306F00895AA1BBB1B51E107C0AA1FBB1FA61765
S1130700B70710F0A61BB70B881F991F5A95A9F7B6
S113071080959095BC01CD0108955058BB27AA2718
S11307200E94A5030C9484040E94760438F00E946D
S11307307D0420F039F49F3F19F426F40C947304DB
S11307400EF4E095E7FB0C946D04E92F0E949504E8
S113075058F3BA17620773078407950720F079F4F2
S1130760A6F50C94B7040EF4E0950B2EBA2FA02D29
S11307700B01B90190010C01CA01A0011124FF274A
S1130780591B99F0593F50F4503E68F11A16F04045
S1130790A22F232F342F4427585FF3CF4695379544
S11307A02795A795F0405395C9F77EF41F16BA0B09
S11307B0620B730B840BBAF09150A1F0FF0FBB1FB7
S11307C0661F771F881FC2F70EC0BA0F621F731F00
S11307D0841F48F4879577956795B795F7959E3F5D
S11307E008F0B0CF9395880F08F09927EE0F9795EE
S11307F0879508950E9401046894B1110C94B8047B
S113080008950E949D0488F09F5798F0B92F992766
S1130810B751B0F0E1F0660F771F881F991F1AF0E7
S1130820BA95C9F714C0B13091F00E94B704B1E091
S113083008950C94B704672F782F8827B85F39F090
S1130840B93FCCF3869577956795B395D9F73EF480
S113085090958095709561957F4F8F4F9F4F089528
S1130860E89409C097FB3EF4909580957095619546
S11308707F4F8F4F9F4F9923A9F0F92F96E9BB27FC
S11308809395F695879577956795B795F111F8CF78
S1130890FAF4BB0F11F460FF1BC06F5F7F4F8F4FE3
S11308A09F4F16C0882311F096E911C0772321F0D9
S11308B09EE8872F762F05C0662371F096E8862F71
S11308C070E060E02AF09A95660F771F881FDAF7C8
S11308D0880F9695879597F9089597F99F6780E80B
S11308E070E060E008959FEF80EC089500240A947E
S11308F01616170618060906089500240A941216F7
S11309001306140605060895092E0394000C11F429
S1130910882352F0BB0F40F4BF2B11F460FF04C0D6
S11309206F5F7F4F8F4F9F4F089557FD9058440F2F
S1130930551F59F05F3F71F04795880F97FB991F3A
S113094061F09F3F79F087950895121613061406F7
S1130950551FF2CF4695F1DF08C016161706180684
S1130960991FF1CF86957105610508940895E8945F
S1130970BB2766277727CB0197F908950E94D104F6
S11309800C9484040E94760438F00E947D0420F0C4
S1130990952311F00C946D040C94730411240C949D
S11309A0B8040E94950470F3959FC1F3950F50E02D
S11309B0551F629FF001729FBB27F00DB11D639F0D
S11309C0AA27F00DB11DAA1F649F6627B00DA11DB3
S11309D0661F829F2227B00DA11D621F739FB00D59
S11309E0A11D621F839FA00D611D221F749F3327C9
S11309F0A00D611D231F849F600D211D822F762F62
S1130A006A2F11249F5750409AF0F1F088234AF03E
S1130A10EE0FFF1FBB1F661F771F881F91505040AA
S1130A20A9F79E3F510580F00C946D040C94B80412
S1130A305F3FE4F3983ED4F3869577956795B79531
S1130A40F795E7959F5FC1F7FE2B880F911D96954B
S10D0A50879597F90895F894FFCFF5
S9030000FC
