S01700004D6963726F4D6F7573652B5F365F322E73726563B9
S11300000C9434000C9446000C9446000C94460066
S11300100C9446000C9446000C9446000C94460044
S11300200C9446000C9446000C9446000C94460034
S11300300C9446000C9446000C9446000C94460024
S11300400C9446000C9446000C9446000C94460014
S11300500C9446000C9446000C9446000C94460004
S11300600C948B050C94460011241FBECFEFD8E0EE
S1130070DEBFCDBF21E0A0E0B1E001C01D92AB30F6
S1130080B207E1F70E94D9050C948D080C94000086
S1130090ECEBF0E0108294EA908390819923ECF7E2
S11300A08093BB0084E88093BC00ECEBF0E080819B
S11300B08823ECF78091B90008958093BB0084E80D
S11300C08093BC00ECEBF0E080818823ECF7809116
S11300D0B9000895882331F084EC8093BC00ECEBE4
S11300E0F0E004C084E88093BC00F9CF80818823C9
S11300F0ECF78091BB000895ECEBF0E084E9808399
S11301008AE08A95F1F700C085EC8083089598E22F
S11301109A95F1F71092BC003D9A90E0AC01440F1F
S1130120551F440F551F440F551F480F591F1416D0
S113013015069CF520E030E0E8EBF0E0459A90816C
S1130140903229F48AE48A95F1F700C00CC09081BA
S1130150923029F492E19A95F1F700C004C08AE440
S11301608A95F1F700C045989081903229F49AE479
S11301709A95F1F700C00CC09081923029F482E185
S11301808A95F1F700C004C09AE49A95F1F700C08B
S11301902F5F3F4F2417350789F680E388B98AE635
S11301A08A95F1F700C008958FE19EE40197F1F775
S11301B000C0000082E08093B80087B1807F87B9D7
S11301C018B888B18F6088B982E48093BA0085EC4E
S11301D08093BC000895E4E6F0E080818E7F808304
S11301E086E680937C0086E880937A00089581E017
S11301F00E94870086ED0E94480080E10E945D0015
S113020083E90E945D000E947C008CE30E94480008
S113021080E20E945D008CE70E945D000E947C00E9
S11302208CE30E94480082E20E945D0080E00E940C
S11302305D000E947C000895CF93C82F8EEE0E942B
S11302404800C43091F028F4C130B9F0C23089F0CC
S113025017C0C83031F0C03199F480E10E945D00CC
S11302600FC088E00E945D000BC084E00E945D0026
S113027007C082E00E945D0003C081E00E945D002F
S11302800E947C00CF910895CF93DF9381E00E9478
S11302908700C0E0D0E0C130D10549F0C230D105BB
S11302A051F0209759F481E00E941C0107C084E0BA
S11302B00E941C0103C080E10E941C0182E00E9494
S11302C0870086E20E94480082E80E945D0087E081
S11302D00E945D000E947C008AE18A95F1F700C0CB
S11302E086E20E94480083E80E945D0084E10E9447
S11302F05D000E947C008AE18A95F1F700C086E2E5
S11303000E94480080E80E945D0083E00E945D0036
S11303100E947C008AE18A95F1F700C02196C330DF
S1130320D10509F0B8CFDF91CF910895CF93DF9332
S11303300E941C0186E20E94480087E80E945D003A
S11303400E947C008AE18A95F1F700C087E20E944E
S1130350480081E00E946A00C82F80E00E946A0081
S1130360D82F0E947C008AE18A95F1F700C08C2F77
S113037090E0982F88278D0F911DDF91CF910895DC
S1130380CF93DF9386ED0E9448008CE10E945D00CC
S113039087ED0E94480081E00E946A00D82F80E027
S11303A00E946A00C82F0E947C008C2F90E0982F36
S11303B088278D0F911DDF91CF910895549A5C9AEF
S11303C02FEF80E792E0215080409040E1F700C099
S11303D000005C9808958F929F92AF92BF92CF9243
S11303E0DF92EF92FF92CF93DF93EA01861B970B84
S11303F04C01990FAA08BB08C501B4010E949407D7
S1130400288139814A815B810E9420080E945C070F
S11304106B017C0188859985AA85BB85BC01CD01CA
S1130420680D791D8A1D9B1D688779878A879B873C
S11304300E9494072C813D814E815F810E94200897
S11304400E945C07611520E872078105910564F438
S1130450613020E872072FEF820792074CF462E0C4
S113046070E88FEF9FEF04C06EEF7FE780E090E0CD
S11304700D2C000CEE08FF08DC01CB018C0D9D1D3A
S1130480AE1DBF1D81382FEF9207A207B20724F4D7
S113049081E89FEFAFEFBFEF80389105A105B1056B
S11304A024F08FE790E0A0E0B0E0DF91CF91FF90DF
S11304B0EF90DF90CF90BF90AF909F908F90089572
S11304C0682F84B1866084B983E0809381006623B9
S11304D0C4F4619581E880938000062E000C770BAC
S11304E0880B990B0E94940723E333E343E250E41F
S11304F00E9420080E94630770938900609388001B
S11305000895611104C081E080938000089581E220
S113051080938000062E000C770B880B990B0E94A9
S1130520940723E333E343E250E40E9420080E944B
S1130530630770938B0060938A000895682F8AB1D3
S113054080668AB983E085BD6623A4F4619581E25F
S113055084BD062E000C770B880B990B0E94940720
S113056023E333E343E250E40E9420080E9463073C
S113057068BD0895611103C081E084BD089581E8D8
S113058084BD062E000C770B880B990B0E949407F0
S113059023E333E343E250E40E9420080E9463070C
S11305A067BD0895CF93C62F0E9460028C2F0E94CE
S11305B09E02CF91089594B1966094B993E090937C
S11305C08100662349F091E89093800090E0909335
S11305D08900809388000895811104C081E080938C
S11305E08000089591E29093800090E090938B00B6
S11305F080938A0008959AB190669AB993E095BD64
S1130600662321F091E294BD88BD0895811103C051
S113061081E084BD089591E894BD87BD08952F922B
S11306203F924F925F926F927F928F929F92AF927E
S1130630BF92CF92DF92EF92FF920F931F93CF93CB
S1130640DF93CDB7DEB764970FB6F894DEBF0FBE65
S1130650CDBF2C010E94C0014C0186B181708B8BEF
S113066086B182708C8B8FE892ECA5EFBBE3898313
S11306709A83AB83BC838FE692E1A3E8BAE38D83CC
S11306809E83AF83B88719861A861B861C868EE7DD
S113069090E09E878D8780EC91EAAFEEBFE38F8771
S11306A0988BA98BBA8BE12CF12C312C0F2EF1E411
S11306B02F2EF02D81E00E9496016C0180E10E94B2
S11306C096015C010E94C001BC0168197909AE0160
S11306D04F5F5F4F80E090E00E94EB018C0121E8C6
S11306E0C2162CE0D206E0F041E8A4164CE0B406B1
S11306F098F569857A858B859C850E94940723E308
S113070033E343E35FE30E9420080E945C076987A8
S11307107A878B879C870F2EF6E0DF2EF02D1FC083
S113072081E8A8168CE0B806C8F069857A858B85BF
S11307309C850E94940723E333E343E35FE30E9431
S113074020080E945C0769877A878B879C870F2E15
S1130750FAEFDF2EF02D03C0D32C01C0D32CC80137
S11307608F5B9F4F8338910524F4992324F40FEB76
S113077002C001E410E0822D8D19632D801B0E94BC
S1130780DB0281E48D0D632D800F0E94FB0286B194
S113079080FB662460F8712C2B89822F220F990B21
S11307A06816790631F086B181708B8B4FEFE41AAD
S11307B0F40A86B1827090E04C89242F440F330BE5
S11307C08217930731F086B182708C8B8FEFE81A11
S11307D0F80AE414F504B0F084E00E949601813F25
S11307E02AE0920754F0893D9E4064F060E080E086
S11307F00E94D2020E94DE010CC060E080E00E94F0
S1130800D20207C08FE19EE40197F1F700C0000017
S113081051CF64960FB6F894DEBF0FBECDBFDF9103
S1130820CF911F910F91FF90EF90DF90CF90BF90E9
S1130830AF909F908F907F906F905F904F903F907C
S11308402F9008959F92AF92BF92CF92DF92EF9232
S1130850FF920F931F93CF93DF93CDB7DEB76297C9
S11308600FB6F894DEBF0FBECDBF0E94C0015C017D
S113087082E490E6A5EEBBE389839A83AB83BC83D1
S113088082E898EAABEFB7E38D839E83AF83B887A2
S113089019861A861B861C868EE790E09E878D87B4
S11308A080E092E8AFEFBFE38F87988BA98BBA8B78
S11308B000E010E00F2EF4E6CF2ED12CF02D0F2EF9
S11308C0FDEF9F2EF02D0E94C0019C012A193B09C7
S11308D0C901B6010E943407060F171F0D3F88E0B7
S11308E01807C4F4AE014F5F5F4FB90188EB9BE07A
S11308F00E94EB0144967C01892D8E190E946002AE
S11309008E2D0E949E028FE19EE40197F1F700C0B4
S11309100000D9CF60E080E00E94D20262960FB658
S1130920F894DEBF0FBECDBFDF91CF911F910F9121
S1130930FF90EF90DF90CF90BF90AF909F9008957D
S1130940AF92BF92CF92DF92EF92FF920F931F93D9
S1130950CF93DF93CDB7DEB762970FB6F894DEBFBF
S11309600FBECDBF0E94C0015C0186EA9BE9A4ECE6
S1130970BBE389839A83AB83BC838CEA95ECA7EAB7
S1130980B7E38D839E83AF83B88719861A861B8647
S11309901C868EE790E09E878D8780E09CEAAFEF0F
S11309A0BFE38F87988BA98BBA8B00E010E00F2EE2
S11309B0F4E6CF2ED12CF02D0E94C0019C012A19FF
S11309C03B09C901B6010E943407060F171F043002
S11309D087EF1807C4F0AE014F5F5F4FB90188E499
S11309E094EF0E94EB0144977C0181950E94600280
S11309F08DEF8E0D0E949E028FE19EE40197F1F728
S1130A0000C00000D9CF60E080E00E94D20262966C
S1130A100FB6F894DEBF0FBECDBFDF91CF911F910B
S1130A200F91FF90EF90DF90CF90BF90AF9008951B
S1130A30EF92FF920F931F93CF93C82F80E10E94F0
S1130A4096017C0184E00E9496018C0181E00E9461
S1130A5096019C01C130B9F028F0C23029F1C330AD
S1130A60A1F144C085ECE81689E0F80610F089E0AD
S1130A7001C081E0053C194008F08460253C394000
S1130A80B0F1826034C085ECE81689E0F80610F015
S1130A908CE001C088E0053C194008F08260253CE8
S1130AA0394028F1816023C085ECE81689E0F80616
S1130AB010F086E001C084E0053C194008F0816034
S1130AC0253C3940A0F0886012C085ECE81689E026
S1130AD0F80610F083E001C082E0053C194008F0FC
S1130AE08860253C394018F0846001C080E0CF91D3
S1130AF01F910F91FF90EF9008950E9422042FEF11
S1130B0084E39CE0215080409040E1F700C0000065
S1130B100E94220408951F920F920FB60F9211247F
S1130B208F9380E88093B9008091BB008093080183
S1130B3085EC8093BC0010920701809108018130FC
S1130B4019F4809306012FC080910801823021F4AA
S1130B5081E08093050127C080910801833021F44E
S1130B6081E0809304011FC080910801843021F446
S1130B7081E08093030117C080910801893021F43A
S1130B8081E0809302010FC0809108018A3021F432
S1130B9081E08093010107C0809108018A3219F431
S1130BA081E0809300018F910F900FBE0F901F90F2
S1130BB018950E94D4000E94EB000E94F7000E9446
S1130BC0440182E08093B800789410920701C1E058
S1130BD0D3E080910A010E94180580930901C09313
S1130BE0070180910701882351F08FE19EE401976A
S1130BF0F1F700C00000809107018111F6CF8091C8
S1130C000601882321F19FEF21EE84E091502040DA
S1130C108040E1F700C000000E9422049FEF24E31B
S1130C208CE0915020408040E1F700C000006C2F20
S1130C308EE090E00E940F0380910A01815084307D
S1130C4018F480930A01FFC0D0930A01FCC080917C
S1130C500501882379F09FEF21EE84E09150204034
S1130C608040E1F700C000006C2F8EE090E00E940D
S1130C700F03E9C080910401882321F19FEF21EE45
S1130C8084E0915020408040E1F700C000000E94C1
S1130C90A0049FEF24E38CE0915020408040E1F7D2
S1130CA000C000006C2F8EE090E00E940F03809142
S1130CB00A018F5F843018F480930A01C4C0109233
S1130CC00A01C1C0809103018823C1F09FEF21EE86
S1130CD084E0915020408040E1F700C000000E9471
S1130CE07D0580910A0192E0980F943018F4909356
S1130CF00A01A9C0825080930A01A5C08091020113
S1130D00882319F00E94DE019EC08091010188238E
S1130D1071F00E94DE019FEF21EE84E091502040AB
S1130D208040E1F700C000000E94DE018CC0809189
S1130D300001882309F487C00E94DE019FEF24E3A9
S1130D408CE0915020408040E1F700C000000E94F8
S1130D50DE019FEF23EC89E0915020408040E1F7D1
S1130D6000C000000E94DE019FE72BE888E091505C
S1130D7020408040E1F700C000000E94DE019FEFA8
S1130D8022E587E0915020408040E1F700C0000058
S1130D900E94DE019FE72AE186E0915020408040D6
S1130DA0E1F700C000000E94DE019FEF21EE84E025
S1130DB0915020408040E1F700C000000E94DE0115
S1130DC09FE729EA83E0915020408040E1F700C08A
S1130DD000000E94DE019FEF20E782E09150204056
S1130DE08040E1F700C000000E94DE019FE728E395
S1130DF081E0915020408040E1F700C000000E9453
S1130E00DE019FE728E381E0915020408040E1F734
S1130E1000C000000E94DE019FE728E381E09150BA
S1130E2020408040E1F700C000000E94DE010E94E3
S1130E30DE010E94DE010E94DE010E94DE010E94AA
S1130E40DE010E94DE01C093070110920601109298
S1130E5005011092040110920301109202011092F4
S1130E60010110920001B5CE97FB072E16F40094F1
S1130E7007D077FD09D00E94480707FC05D03EF44F
S1130E80909581959F4F0895709561957F4F089532
S1130E90AA1BBB1B51E107C0AA1FBB1FA617B7079C
S1130EA010F0A61BB70B881F991F5A95A9F78095B8
S1130EB09095BC01CD0108950E9463076894B11117
S1130EC00C941A0808950E94FF0788F09F5798F021
S1130ED0B92F9927B751B0F0E1F0660F771F881F3B
S1130EE0991F1AF0BA95C9F714C0B13091F00E9455
S1130EF01908B1E008950C941908672F782F8827F2
S1130F00B85F39F0B93FCCF3869577956795B3957B
S1130F10D9F73EF490958095709561957F4F8F4FEA
S1130F209F4F0895E89409C097FB3EF490958095EF
S1130F30709561957F4F8F4F9F4F9923A9F0F92F9B
S1130F4096E9BB279395F695879577956795B79519
S1130F50F111F8CFFAF4BB0F11F460FF1BC06F5FFF
S1130F607F4F8F4F9F4F16C0882311F096E911C011
S1130F70772321F09EE8872F762F05C0662371F032
S1130F8096E8862F70E060E02AF09A95660F771F46
S1130F90881FDAF7880F9695879597F9089597F93A
S1130FA09F6780E870E060E008959FEF80EC08950B
S1130FB000240A9416161706180609060895002434
S1130FC00A9412161306140605060895092E0394AE
S1130FD0000C11F4882352F0BB0F40F4BF2B11F422
S1130FE060FF04C06F5F7F4F8F4F9F4F089557FD81
S1130FF09058440F551F59F05F3F71F04795880F83
S113100097FB991F61F09F3F79F087950895121619
S113101013061406551FF2CF4695F1DF08C01616C5
S113102017061806991FF1CF869571056105089476
S11310300895E894BB2766277727CB0197F908958D
S11310400E9433080C94E6070E94D80738F00E94E7
S1131050DF0720F0952311F00C94CF070C94D507EB
S113106011240C941A080E94F70770F3959FC1F39A
S1131070950F50E0551F629FF001729FBB27F00D42
S1131080B11D639FAA27F00DB11DAA1F649F662797
S1131090B00DA11D661F829F2227B00DA11D621FE6
S11310A0739FB00DA11D621F839FA00D611D221FA0
S11310B0749F3327A00D611D231F849F600D211D84
S11310C0822F762F6A2F11249F5750409AF0F1F007
S11310D088234AF0EE0FFF1FBB1F661F771F881F70
S11310E091505040A9F79E3F510580F00C94CF07D2
S11310F00C941A085F3FE4F3983ED4F386957795F1
S11311006795B795F795E7959F5FC1F7FE2B880F15
S1111110911D9695879597F90895F894FFCF51
S9030000FC
