:100000000C9434000C9446000C9446000C9446006A
:100010000C9446000C9446000C9446000C94460048
:100020000C9446000C9446000C9446000C94460038
:100030000C9446000C9446000C9446000C94460028
:100040000C9446000C9446000C9446000C94460018
:100050000C9446000C9446000C9446000C94460008
:100060000C946C000C94460011241FBECFEFD8E016
:10007000DEBFCDBF21E0A0E0B1E001C01D92A03005
:10008000B207E1F70E9494000C94A6000C940000C3
:100090008FE19EE40197F1F700C0000082E08093B9
:1000A000B80087B1807F87B918B888B18F6088B9E8
:1000B00082E48093BA0084E48093BC000895549A4B
:1000C0005C9A2FEF80E792E0215080409040E1F76A
:1000D00000C000005C9808951F920F920FB60F9217
:1000E00011242F933F934F935F936F937F938F933D
:1000F0009F93AF93BF93EF93FF930E945F000E9483
:100100005F000E945F00FF91EF91BF91AF919F91BF
:100110008F917F916F915F914F913F912F910F90B0
:100120000FBE0F901F9018950E94480082E08093A8
:10013000B80078940E945F002FEF83ED90E3215088
:1001400080409040E1F700C00000F4CFF894FFCF6A
:00000001FF
