S01700004D6963726F4D6F7573652B5F365F322E73726563B9
S11300000C9434000C9446000C9446000C94460066
S11300100C9446000C9446000C9446000C94460044
S11300200C9446000C9446000C9446000C94460034
S11300300C9446000C9446000C9446000C94460024
S11300400C9446000C9446000C9446000C94460014
S11300500C9446000C9446000C9446000C94460004
S11300600C9446000C94460011241FBECFEFD8E038
S1130070DEBFCDBF21E0A0E0B1E001C01D92A03001
S1130080B207E1F70E94B7010C9419030C94000025
S113009094EA9093BC00ECEBF0E090819923ECF7A8
S11300A08093BB0084E88093BC00ECEBF0E080819B
S11300B08823ECF78091B90008958093BB0084E80D
S11300C08093BC00ECEBF0E080818823ECF7809116
S11300D0B9000895882321F084EC8093BC0003C008
S11300E084E88093BC0084E690E0ECEBF0E02081AF
S11300F0222314F00197D9F78091BB00089548E2B8
S11301004A95F1F71092BC003D9A90E09C01220FB1
S1130110331F220F331F220F331F820F931F181612
S113012019068CF420E030E0459A42E14A95F1F753
S113013000C0459842E14A95F1F700C02F5F3F4F58
S11301402817390789F780E388B988E28A95F1F797
S11301500895CF93C82F8EEE0E944800C43069F0F2
S113016018F4C13031F014C0C83059F0C03169F00E
S11301700FC081E00E945D000BC084E00E945D001E
S113018007C088E00E945D0003C080E10E945D001A
S113019084E98093BC00CF9108958FE19EE4019798
S11301A0F1F700C0000087B1807F87B918B888B123
S11301B08F6088B90895EF92FF921F93CF93DF93D6
S11301C081E00E947F00C0E0D0E00F2EFCEBEF2E18
S11301D0F12CF02D14E9C130D10549F0C230D1051C
S11301E051F0209759F480E10E94A90007C084E0EF
S11301F00E94A90003C081E00E94A90082E00E943D
S11302007F0086E20E94480082E80E945D0085E04B
S11302100E945D00F7011083FAE1FA95F1F700C03E
S113022086E20E94480083E80E945D0084E10E9407
S11302305D00F7011083FAE1FA95F1F700C086E258
S11302400E94480080E80E945D0083E00E945D00F7
S1130250F7011083FAE1FA95F1F700C02196C33053
S1130260D10509F0B8CFDF91CF911F91FF90EF90A6
S11302700895682F84B1866084B983E080938100F7
S11302806623C4F4619581E880938000062E000CF7
S1130290770B880B990B0E94200223E333E343E29C
S11302A050E40E94AC020E94EF01709389006093B5
S11302B088000895611104C081E08093800008954E
S11302C081E280938000062E000C770B880B990B3B
S11302D00E94200223E333E343E250E40E94AC0291
S11302E00E94EF0170938B0060938A0008950F932E
S11302F01F93CF93DF930E94A90086E20E944800D7
S113030087E80E945D000CEB10E0D4E9F801D0838B
S1130310FAE1FA95F1F700C087E20E94480081E013
S11303200E946A00C82F80E00E946A00F801D0830E
S1130330FAE1FA95F1F700C02C2F30E0322F222792
S1130340A901480F511DCA01DF91CF911F910F914F
S11303500895009759F02FEF39E648E121503040D5
S11303604040E1F700C000000197A9F708950E94FA
S1130370CD000E94DB00329B08C08FE19EE4019710
S1130380F1F700C000003299F8CF89E10E943901E9
S11303909FE72AE186E0915020408040E1F700C0C9
S11303A0000080E00E94390180E28093B80082E07E
S11303B090E00E94A90181E00E947701893B9B4063
S11303C024F08EE10E94390103C080E00E943901CB
S11303D08FEF9CE70197F1F700C00000ECCF0E947B
S11303E08B0288F09F5798F0B92F9927B751B0F036
S11303F0E1F0660F771F881F991F1AF0BA95C9F7A5
S113040014C0B13091F00E94A502B1E008950C949B
S1130410A502672F782F8827B85F39F0B93FCCF34E
S1130420869577956795B395D9F73EF49095809521
S1130430709561957F4F8F4F9F4F0895E89409C041
S113044097FB3EF490958095709561957F4F8F4F03
S11304509F4F9923A9F0F92F96E9BB279395F69519
S1130460879577956795B795F111F8CFFAF4BB0F97
S113047011F460FF1BC06F5F7F4F8F4F9F4F16C0FB
S1130480882311F096E911C0772321F09EE8872F85
S1130490762F05C0662371F096E8862F70E060E041
S11304A02AF09A95660F771F881FDAF7880F9695BA
S11304B0879597F9089597F99F6780E870E060E061
S11304C008959FEF80EC089500240A9416161706E9
S11304D018060906089500240A9412161306140631
S11304E005060895092E0394000C11F4882352F094
S11304F0BB0F40F4BF2B11F460FF04C06F5F7F4F4C
S11305008F4F9F4F089557FD9058440F551F59F032
S11305105F3F71F04795880F97FB991F61F09F3FEC
S113052079F087950895121613061406551FF2CF15
S11305304695F1DF08C0161617061806991FF1CF65
S113054086957105610508940895E894BB2766278C
S11305507727CB0197F908950E94BF020C94720289
S11305600E94640238F00E946B0220F0952311F07F
S11305700C945B020C94610211240C94A6020E9458
S1130580830270F3959FC1F3950F50E0551F629F4E
S1130590F001729FBB27F00DB11D639FAA27F00DD8
S11305A0B11DAA1F649F6627B00DA11D661F829FFF
S11305B02227B00DA11D621F739FB00DA11D621FE4
S11305C0839FA00D611D221F749F3327A00D611D01
S11305D0231F849F600D211D822F762F6A2F1124E3
S11305E09F5750409AF0F1F088234AF0EE0FFF1F16
S11305F0BB1F661F771F881F91505040A9F79E3F6D
S1130600510580F00C945B020C94A6025F3FE4F366
S1130610983ED4F3869577956795B795F795E795C2
S11306209F5FC1F7FE2B880F911D9695879597F9CB
S10906300895F894FFCFC9
S9030000FC
