S01700004D6963726F4D6F7573652B5F365F322E73726563B9
S11300000C9434000C9446000C9446000C94460066
S11300100C9446000C9446000C9446000C94460044
S11300200C9446000C9446000C9446000C94460034
S11300300C9446000C9446000C9446000C94460024
S11300400C9446000C9446000C9446000C94460014
S11300500C9446000C9446000C9446000C94460004
S11300600C9446000C94460011241FBECFEFD8E038
S1130070DEBFCDBF21E0A0E0B1E001C01D92A03001
S1130080B207E1F70E9475020C94EF030C94000090
S113009094EA9093BC00ECEBF0E090819923ECF7A8
S11300A08093BB0084E88093BC00ECEBF0E080819B
S11300B08823ECF78091B90008958093BB0084E80D
S11300C08093BC00ECEBF0E080818823ECF7809116
S11300D0B9000895882321F084EC8093BC0003C008
S11300E084E88093BC0084E690E0ECEBF0E02081AF
S11300F0222314F00197D9F78091BB00089548E2B8
S11301004A95F1F71092BC003D9A90E09C01220FB1
S1130110331F220F331F220F331F820F931F181612
S113012019068CF420E030E0459A42E14A95F1F753
S113013000C0459842E14A95F1F700C02F5F3F4F58
S11301402817390789F780E388B988E28A95F1F797
S11301500895CF93C82F8EEE0E944800C23081F0DC
S113016018F4C13089F013C0C43031F0C03179F4CF
S113017080E10E945D000BC084E00E945D0007C026
S113018082E00E945D0003C081E00E945D0084E97A
S11301908093BC00CF9108958FE19EE40197F1F71D
S11301A000C0000087B1807F87B918B888B18F601C
S11301B088B90895EF92FF921F93CF93DF9381E064
S11301C00E947F00C0E0D0E00F2EFCEBEF2EF12C5C
S11301D0F02D14E9C130D10549F0C230D10551F0F8
S11301E0209759F481E00E94A90007C084E00E948E
S11301F0A90003C080E10E94A90082E00E947F0060
S113020086E20E94480082E80E945D0085E00E9428
S11302105D00F7011083FAE1FA95F1F700C086E278
S11302200E94480083E80E945D0084E10E945D0012
S1130230F7011083FAE1FA95F1F700C086E20E9413
S1130240480080E80E945D0083E00E945D00F701A1
S11302501083FAE1FA95F1F700C02196C330D10575
S113026009F0B8CFDF91CF911F91FF90EF900895DF
S1130270682F84B1866084B983E08093810066230B
S1130280C4F4619581E880938000062E000C770BFE
S1130290880B990B0E94F60223E333E343E250E414
S11302A00E9482030E94C5027093890060938800B3
S11302B00895611104C081E080938000089581E273
S11302C080938000062E000C770B880B990B0E94FC
S11302D0F60223E333E343E250E40E9482030E94E4
S11302E0C50270938B0060938A000895682F8AB1C9
S11302F080668AB983E085BD6623A4F4619581E2B2
S113030084BD062E000C770B880B990B0E94F60215
S113031023E333E343E250E40E9482030E94C502D4
S113032068BD0895611103C081E084BD089581E82A
S113033084BD062E000C770B880B990B0E94F602E5
S113034023E333E343E250E40E9482030E94C502A4
S113035067BD0895CF93C62F0E9438018C2F0E9449
S11303607601CF910895882321F081E084BD80E651
S11303708BB9662329F081E08093800086E085B9FB
S113038008950F931F93CF93DF930E94A90086E2F1
S11303900E94480087E80E945D000CEB10E0D4E95D
S11303A0F801D083FAE1FA95F1F700C087E20E94E0
S11303B0480081E00E946A00C82F80E00E946A0021
S11303C0F801D083FAE1FA95F1F700C02C2F30E060
S11303D0322F2227A901480F511DCA01DF91CF9165
S11303E01F910F910895009759F02FEF39E648E1D6
S11303F0215030404040E1F700C000000197A9F7C8
S11304000895FF920F931F93CF93DF9369E189E1DE
S11304100E94AA0169E189E10E94AA01F12C80E10C
S11304200E94C1018C0181E00E94C101EC0184E0C1
S11304300E94C1018D3A9D4048F0F39485E08F15E8
S113044030F461E081E00E94B3013CC0F12C013A38
S11304509FE0190720F08CE10E94380112C0013896
S11304602CE0120720F089E10E9438010AC0053C03
S1130470194020F084E10E94380103C089E10E9400
S11304803801C13A9FE0D90720F08CE10E9476013F
S113049012C0C1382CE0D20720F089E10E94760115
S11304A00AC0C53CD94020F084E10E94760103C013
S11304B089E10E9476018FE19EE40197F1F700C083
S11304C00000ADCFDF91CF911F910F91FF90089560
S11304D0249A2C9A2FEF80E792E02150804090409C
S11304E0E1F700C000002C9808950E94CC000E94FF
S11304F0DA0080E090E005C0329910C01AC080E0B4
S113050090E0EFE1FEE43197F1F700C00000329B88
S1130510F6CF019684309105A4F3EECFFFE728E3EC
S113052081E0F15020408040E1F700C000003299A2
S1130530F5CF89E10E9438019FE7EAE1F6E09150A6
S1130540E040F040E1F700C0000080E00E94380184
S11305500E94680282E090E00E94F3010E9401027E
S113056080E28093B80088EC90E00E94F30181E07F
S11305700E94C101893B9B4024F089E10E9438011B
S1130580F6CF8CE10E943801F2CF0E94610388F01B
S11305909F5798F0B92F9927B751B0F0E1F0660F43
S11305A0771F881F991F1AF0BA95C9F714C0B13084
S11305B091F00E947B03B1E008950C947B03672FB4
S11305C0782F8827B85F39F0B93FCCF386957795B3
S11305D06795B395D9F73EF490958095709561959C
S11305E07F4F8F4F9F4F0895E89409C097FB3EF4C7
S11305F090958095709561957F4F8F4F9F4F99236C
S1130600A9F0F92F96E9BB279395F69587957795E9
S11306106795B795F111F8CFFAF4BB0F11F460FFA9
S11306201BC06F5F7F4F8F4F9F4F16C0882311F001
S113063096E911C0772321F09EE8872F762F05C015
S1130640662371F096E8862F70E060E02AF09A95B0
S1130650660F771F881FDAF7880F9695879597F9A5
S1130660089597F99F6780E870E060E008959FEF30
S113067080EC089500240A94161617061806090635
S1130680089500240A941216130614060506089504
S1130690092E0394000C11F4882352F0BB0F40F48C
S11306A0BF2B11F460FF04C06F5F7F4F8F4F9F4FCC
S11306B0089557FD9058440F551F59F05F3F71F04E
S11306C04795880F97FB991F61F09F3F79F08795B5
S11306D00895121613061406551FF2CF4695F1DF3E
S11306E008C0161617061806991FF1CF86957105CE
S11306F0610508940895E894BB2766277727CB0102
S113070097F908950E9495030C9448030E943A03B4
S113071038F00E94410320F0952311F00C9431032A
S11307200C94370311240C947C030E94590370F336
S1130730959FC1F3950F50E0551F629FF001729F82
S1130740BB27F00DB11D639FAA27F00DB11DAA1F91
S1130750649F6627B00DA11D661F829F2227B00DDE
S1130760A11D621F739FB00DA11D621F839FA00D69
S1130770611D221F749F3327A00D611D231F849FB9
S1130780600D211D822F762F6A2F11249F57504010
S11307909AF0F1F088234AF0EE0FFF1FBB1F661F8B
S11307A0771F881F91505040A9F79E3F510580F054
S11307B00C9431030C947C035F3FE4F3983ED4F330
S11307C0869577956795B795F795E7959F5FC1F7F8
S11307D0FE2B880F911D9695879597F90895F894A7
S10507E0FFCF45
S9030000FC
