:100000000C9434000C9446000C9446000C9446006A
:100010000C9446000C9446000C9446000C94460048
:100020000C9446000C9446000C9446000C94460038
:100030000C9446000C9446000C9446000C94460028
:100040000C9446000C9446000C9446000C94460018
:100050000C9446000C9446000C9446000C94460008
:100060000C9446000C94460011241FBECFEFD8E03C
:10007000DEBFCDBF21E0A0E0B1E001C01D92A03005
:10008000B207E1F70E94D1020C9445040C940000E1
:1000900094EA9093BC00ECEBF0E090819923ECF7AC
:1000A0008093BB0084E88093BC00ECEBF0E080819F
:1000B0008823ECF78091B90008958093BB0084E811
:1000C0008093BC00ECEBF0E080818823ECF780911A
:1000D000B9000895882331F084EC8093BC00ECEBE8
:1000E000F0E004C084E88093BC00F9CF80818823CD
:1000F000ECF78091BB00089598E29A95F1F7109281
:10010000BC003D9A90E0AC01440F551F440F551FB1
:10011000440F551F480F591F141615069CF520E073
:1001200030E0E8EBF0E0459A9081903229F48AE4DF
:100130008A95F1F700C00CC09081923029F492E1C9
:100140009A95F1F700C004C08AE48A95F1F700C0DF
:1001500045989081903229F49AE49A95F1F700C07D
:100160000CC09081923029F482E18A95F1F700C0A9
:1001700004C09AE49A95F1F700C02F5F3F4F24170F
:10018000350789F680E388B98AE68A95F1F700C0D9
:100190000895CF93DF93C82FD92F82E00E944800A3
:1001A0008D2F0E945D008C2F0E945D0084E980935A
:1001B000BC00DF91CF9108958FE19EE40197F1F7A4
:1001C00000C0000082E08093B80087B1807F87B9CB
:1001D00018B888B18F6088B90895E4E6F0E08081AE
:1001E0008E7F808386E680937C0086E880937A0009
:1001F000089581E00E947C0086ED0E94480080E125
:100200000E945D0083E90E945D0084E98093BC0048
:100210000895CF93C82F8EEE0E944800C43091F00D
:1002200028F4C130B9F0C23089F017C0C83031F0BD
:10023000C03199F480E10E945D000FC088E00E9407
:100240005D000BC084E00E945D0007C082E00E9458
:100250005D0003C081E00E945D0084E98093BC00E2
:10026000CF910895EF92FF921F93CF93DF9381E098
:100270000E947C00C0E0D0E00F2EFCEBEF2EF12CB2
:10028000F02D14E9C130D10549F0C230D10551F04B
:10029000209759F481E00E94090107C084E00E9480
:1002A000090103C080E10E94090182E00E947C00F4
:1002B00086E20E94480082E80E945D0085E00E947C
:1002C0005D00F7011083FAE1FA95F1F700C086E2CC
:1002D0000E94480083E80E945D0084E10E945D0066
:1002E000F7011083FAE1FA95F1F700C086E20E9467
:1002F000480080E80E945D0083E00E945D00F701F5
:100300001083FAE1FA95F1F700C02196C330D105C8
:1003100009F0B8CFDF91CF911F91FF90EF90089532
:10032000CF9386ED0E9448008CE10E945D0087ED2E
:100330000E94480081E00E946A00C82F80E00E946D
:100340006A0094E99093BC0090E0982F88278C0F66
:10035000911DCF910895549A5C9A2FEF80E792E017
:10036000215080409040E1F700C000005C98089563
:10037000EAE7F0E08081806480832FEF80E792E0FD
:10038000215080409040E1F700C00000809179004A
:10039000893B60F40E94AB012FEF84E39CE0215085
:1003A00080409040E1F700C00000F4CF089500972E
:1003B00059F02FEF39E648E1215030404040E1F755
:1003C00000C000000197A9F708958F929F92AF9205
:1003D000BF92CF92DF92EF92FF92CF93DF93EA0129
:1003E000861B970B4C01990FAA08BB08C501B401E5
:1003F0000E944C03288139814A815B810E94D80385
:100400000E9414036B017C0188859985AA85BB85B0
:10041000BC01CD01680D791D8A1D9B1D68877987F8
:100420008A879B870E944C032C813D814E815F818E
:100430000E94D8030E9414030D2C000CEE08FF0844
:10044000DC01CB018C0D9D1DAE1DBF1D81382FEF32
:100450009207A207B20724F481E89FEFAFEFBFEF46
:1004600080389105A105B10524F08FE790E0A0E068
:10047000B0E0DF91CF91FF90EF90DF90CF90BF90F1
:10048000AF909F908F90089594B1966094B993E047
:1004900090938100662349F091E89093800090E06A
:1004A00090938900809388000895811104C081E0B1
:1004B00080938000089591E29093800090E0909363
:1004C0008B0080938A0008959AB190669AB993E060
:1004D00095BD662321F091E294BD88BD08958111F8
:1004E00003C081E084BD089591E894BD87BD08955F
:1004F000CF93DF93CDB7DEB762970FB6F894DEBF28
:100500000FBECDBF0E9490015C018FE892ECA5EF79
:10051000BBE389839A83AB83BC838FE692E1A3E834
:10052000BAE38D839E83AF83B88719861A861B86AC
:100530001C868EE790E09E878D8780EC91EAAFEE77
:10054000BFE38F87988BA98BBA8B0F2EF1E4DF2E38
:10055000F02D0E9490017C01EA18FB08AE014F5F6C
:100560005F4FB70180E090E00E94E5018C01C70178
:100570000E94C90088279927801B910B0E94C900FF
:1005800060E08D2D801B0E94440260E081E4800FBA
:100590000E9464028FE19EE40197F1F700C0000021
:1005A000D8CF0E94DC000E94ED000E94F9000E945A
:1005B000320182E08093B80080E090E005C032997B
:1005C00010C01AC080E090E0EFE1FEE43197F1F74F
:1005D00000C00000329BF6CF019684309105A4F351
:1005E000EECFFFE728E381E0F15020408040E1F7C3
:1005F00000C000003299F5CF0E94AB010E94B80103
:1006000082E090E00E94D7010E9478020E9490014F
:1006100088339F4F14F40E94AB018FE39CE901974C
:10062000F1F700C00000F2CF0E941B036894B111E3
:100630000C94D20308950E94B70388F09F5798F056
:10064000B92F9927B751B0F0E1F0660F771F881FD7
:10065000991F1AF0BA95C9F714C0B13091F00E94F1
:10066000D103B1E008950C94D103672F782F882728
:10067000B85F39F0B93FCCF3869577956795B39518
:10068000D9F73EF490958095709561957F4F8F4F87
:100690009F4F0895E89409C097FB3EF4909580958C
:1006A000709561957F4F8F4F9F4F9923A9F0F92F38
:1006B00096E9BB279395F695879577956795B795B6
:1006C000F111F8CFFAF4BB0F11F460FF1BC06F5F9C
:1006D0007F4F8F4F9F4F16C0882311F096E911C0AE
:1006E000772321F09EE8872F762F05C0662371F0CF
:1006F00096E8862F70E060E02AF09A95660F771FE3
:10070000881FDAF7880F9695879597F9089597F9D6
:100710009F6780E870E060E008959FEF80EC0895A7
:1007200000240A94161617061806090608950024D0
:100730000A9412161306140605060895092E03944A
:10074000000C11F4882352F0BB0F40F4BF2B11F4BE
:1007500060FF04C06F5F7F4F8F4F9F4F089557FD1D
:100760009058440F551F59F05F3F71F04795880F1F
:1007700097FB991F61F09F3F79F0879508951216B6
:1007800013061406551FF2CF4695F1DF08C0161662
:1007900017061806991FF1CF869571056105089413
:1007A0000895E894BB2766277727CB0197F908952A
:1007B0000E94EB030C949E030E94900338F00E9469
:1007C000970320F0952311F00C9487030C948D036C
:1007D00011240C94D2030E94AF0370F3959FC1F3D0
:1007E000950F50E0551F629FF001729FBB27F00DDF
:1007F000B11D639FAA27F00DB11DAA1F649F662734
:10080000B00DA11D661F829F2227B00DA11D621F82
:10081000739FB00DA11D621F839FA00D611D221F3C
:10082000749F3327A00D611D231F849F600D211D20
:10083000822F762F6A2F11249F5750409AF0F1F0A3
:1008400088234AF0EE0FFF1FBB1F661F771F881F0C
:1008500091505040A9F79E3F510580F00C948703BA
:100860000C94D2035F3FE4F3983ED4F386957795DA
:100870006795B795F795E7959F5FC1F7FE2B880FB2
:0E088000911D9695879597F90895F894FFCFEE
:00000001FF
